:020000040800F2
:1000000000280020A9190008D1180008D7180008F6
:10001000DD180008E3180008E918000800000000D7
:10002000000000000000000000000000EF180008C1
:10003000FB18000800000000071900081319000849
:10004000F1190008F1190008F1190008F119000868
:10005000F1190008F1190008F1190008F119000858
:10006000F1190008F1190008F1190008F119000848
:10007000F1190008F1190008F1190008F119000838
:10008000F1190008F1190008F1190008F119000828
:10009000F1190008F1190008F1190008F119000818
:1000A000F1190008F1190008F1190008F119000808
:1000B00021190008F119000800000000F1190008DA
:1000C000F11900080000000000000000F11900080C
:1000D00000000000F1190008F119000800000000FC
:1000E000F1190008F1190008F119000800000000DA
:1000F0000000000000000000000000000000000000
:0C01000000000000000000005FF808F1A3
:10010C0010B5054C237833B9044B13B10448AFF345
:10011C0000800123237010BD14000020000000009B
:10012C00F02F000808B5034B1BB103490348AFF38C
:10013C00008008BD0000000018000020F02F00080F
:10014C0080B483B000AF78607B681A78144B1B784E
:10015C009A4203D17B6801221A701CE07B681A78E2
:10016C00104B1B789A4203D17B6802221A7012E062
:10017C007B681A780C4B1B789A4203D17B6803225C
:10018C001A7008E07B681A78084B1B789A4202D1E7
:10019C007B6800221A7000BF0C37BD4680BC7047CC
:1001AC003000002000000020010000200200002090
:1001BC0080B485B000AF786039603B680A2B15DDE0
:1001CC0039681F4B83FB01239A10CB17D21A1346A5
:1001DC009B0013445B00CA1AFA603B68184A82FB06
:1001EC0003129210DB17D31ABB601CE03968144B56
:1001FC0083FB01239A10CB17D21A13469B0013448E
:10020C005B00CA1A002A0AD13B680D4A82FB031212
:10021C009210DB17D31ABB600023FB6003E00023B2
:10022C00BB603B68FB607B681A4607F1080393E8E8
:10023C00030082E8030078681437BD4680BC704721
:10024C006766666680B588B000AF78607B681A78A0
:10025C00394B1B789A426BD07B681A78374B1B78DA
:10026C009A421DD1364B00221A60364B1B68013363
:10027C00344A1360334B1B68632B02DD314B002275
:10028C001A60304B1A6807F1180311461846FFF72D
:10029C008FFFBB692C4A1360FB692C4A136048E042
:1002AC007B681A782A4B1B789A421DD1254B002269
:1002BC001A60284B1B680133264A1360254B1B68B8
:1002CC00632B02DD234B00221A60224B1A6807F1C4
:1002DC00100311461846FFF76BFF3B691A4A13606F
:1002EC007B691A4A136024E07B681A781A4B1B78D6
:1002FC009A421ED1174B00221A60114B1B68013316
:10030C000F4A13600E4B1B68632B02DD0C4B002253
:10031C001A600B4B1A6807F1080311461846FFF7D1
:10032C0047FFBB68084A1360FB68084A136000E08B
:10033C0000BF2037BD4680BD3000002000000020EB
:10034C00680000205C0000205800002054000020B1
:10035C0001000020600000200200002080B582B067
:10036C0000AF78603960224B1B78022B2CD0022B0B
:10037C0039DC002B02D0012B0ED034E03B681B681B
:10038C00012B2BD11A4B01221A703B6800221A60E8
:10039C007868FFF7D5FE21E0002000F065F90346F0
:1003AC00002B03D1124B00221A7019E03B681B681A
:1003BC00012B15D10E4B02221A703B6800221A60D9
:1003CC007868FFF7BDFE0BE0002000F04DF9034606
:1003DC00002B07D1064B00221A7003E000BF02E08D
:1003EC0000BF00E000BF00BF0837BD4680BD00BFA6
:1003FC003100002080B584B000AFF860B9607A603D
:10040C003B60504B1B78022B79D0022B00F395806C
:10041C00002B02D0012B58D08FE0FB691B68012BFD
:10042C0008D1484B01221A70FB6900221A60F86847
:10043C00FFF708FFBB691B68012B0ED1424B002252
:10044C001A60424B00221A60414B00221A60414B49
:10045C0000221A60404B00221A603B6A1B68012B79
:10046C0066D13B6A00221A60FB681A783B4B1B78FA
:10047C009A4208D1364B1B68002B04DD344B1A68AA
:10048C00BB681A6020E0FB681A78354B1B789A42DF
:10049C000BD1304B1B68002B07DD2E4B1A687B6889
:1004AC001A60304B01221A600EE0FB681A782E4B52
:1004BC001B789A423CD1284B1B68002B38DD264B0D
:1004CC001A683B681A6033E032E04FF480512748D9
:1004DC0001F074FD0346184600F0C6F80346002BE5
:1004EC0003D1184B00221A7024E0022000F0D6F839
:1004FC000346002B1ED0134B02221A701AE04FF445
:10050C0080511A4801F05AFD0346184600F0ACF829
:10051C000346002B02D10B4B00221A70FB681B7890
:10052C00012B09D10A4B1B680133094A136003E004
:10053C0000BF02E000BF00E000BF00BF1037BD46A7
:10054C0080BD00BF32000020580000205400002065
:10055C005C000020600000206800002000000020EB
:10056C00010000204C000020020000200008014087
:10057C0090B583B000AF0023FB7158E0FA79FB799A
:10058C002F49895C2F4AD154FB792F4A32F813300A
:10059C00FC7919462D4801F011FD03461A46284BEB
:1005AC001A55FB79264AD25CFB792649CB5C9A42D8
:1005BC0005D1FA79FB792249895C254AD154FB791A
:1005CC00234AD35C002B26D1FB79002B02D1214B83
:1005DC0001221A60FB79012B02D11F4B01221A60F8
:1005EC00FB79022B02D11D4B01221A60FB791C4AAC
:1005FC0032F81330632B09D8FB79194A32F81320DF
:10060C00013291B2164A22F813100DE0FB79154A0B
:10061C000121D15408E0FB79114A002122F8131072
:10062C00FB79104A0021D154FB790133FB71FB7922
:10063C00022BA3D900BF00BF0C37BD4690BD00BF35
:10064C003400002038000020083000080008014069
:10065C007000002064000020500000206C0000207E
:10066C00400000203C00002080B483B000AF034663
:10067C00FB71FB79022B01D9002307E0FB79064AB9
:10068C00D35C002B0CBF01230023DBB218460C37C4
:10069C00BD4680BC704700BF7000002080B483B0A2
:1006AC0000AF0346FB71FB79022B01D9FF2307E056
:1006BC00FB79064AD35C012B0CBF01230023DBB270
:1006CC0018460C37BD4680BC704700BF3C0000206C
:1006DC0080B582B000AF78607B68002B23D10022FC
:1006EC000121C04801F081FC00220221BD4801F02B
:1006FC007CFC00220421BB4801F077FC002208217D
:10070C00B84801F072FC00221021B64801F06DFCD3
:10071C0000222021B34801F068FC01224021B1489D
:10072C0001F063FC5AE17B68012B23D101220121EA
:10073C00AC4801F05AFC00220221AA4801F055FCF9
:10074C0000220421A74801F050FC01220821A548F1
:10075C0001F04BFC01221021A24801F046FC0122C1
:10076C002021A04801F041FC012240219D4801F0CC
:10077C003CFC33E17B68022B23D1002201219948F8
:10078C0001F033FC00220221964801F02EFC0122DC
:10079C000421944801F029FC00220821914801F021
:1007AC0024FC002210218F4801F01FFC0122202183
:1007BC008C4801F01AFC002240218A4801F015FCFB
:1007CC000CE17B68032B23D100220121854801F029
:1007DC000CFC00220221834801F007FC00220421BA
:1007EC00804801F002FC002208217E4801F0FDFB4C
:1007FC00012210217B4801F0F8FB012220217948CD
:10080C0001F0F3FB00224021764801F0EEFBE5E01D
:10081C007B68042B23D101220121724801F0E5FBF6
:10082C00002202216F4801F0E0FB002204216D48F8
:10083C0001F0DBFB012208216A4801F0D6FB012202
:10084C001021684801F0D1FB00222021654801F0FD
:10085C00CCFB00224021634801F0C7FBBEE07B6863
:10086C00052B23D1002201215E4801F0BEFB0122A1
:10087C0002215C4801F0B9FB00220421594801F027
:10088C00B4FB00220821574801F0AFFB01221021D4
:10089C00544801F0AAFB00222021524801F0A5FB8C
:1008AC00002240214F4801F0A0FB97E07B68062B0B
:1008BC0023D1002201214B4801F097FB0122022198
:1008CC00484801F092FB00220421464801F08DFBC0
:1008DC0000220821434801F088FB002210214148E6
:1008EC0001F083FB002220213E4801F07EFB002218
:1008FC0040213C4801F079FB70E07B68072B23D149
:10090C0000220121374801F070FB002202213548FA
:10091C0001F06BFB00220421324801F066FB01223E
:10092C000821304801F061FB012210212D4801F013
:10093C005CFB012220212B4801F057FB01224021B6
:10094C00284801F052FB49E07B68082B23D1002298
:10095C000121244801F049FB00220221214801F029
:10096C0044FB002204211F4801F03FFB0022082118
:10097C001C4801F03AFB002210211A4801F035FB0B
:10098C0000222021174801F030FB0022402115489D
:10099C0001F02BFB22E000220121124801F025FB83
:1009AC00002202210F4801F020FB002204210D48F7
:1009BC0001F01BFB002208210A4801F016FB012262
:1009CC001021084801F011FB00222021054801F0FC
:1009DC000CFB00224021034801F007FB00BF083745
:1009EC00BD4680BD000C014080B582B000AF786080
:1009FC007B68002B2AD100224FF40071CB4801F008
:100A0C00F4FA00224FF48061C84801F0EEFA00229B
:100A1C004FF40061C54801F0E8FA00224FF4805110
:100A2C00C24801F0E2FA00224FF40051BF4801F035
:100A3C00DCFA00224FF48041BC4801F0D6FA0122C6
:100A4C004FF40041B94801F0D0FA9BE17B68012BCF
:100A5C002AD101224FF40071B44801F0C6FA0022E9
:100A6C004FF48061B14801F0C0FA00224FF40061EC
:100A7C00AE4801F0BAFA01224FF48051AB4801F0B4
:100A8C00B4FA01224FF40051A84801F0AEFA012249
:100A9C004FF48041A54801F0A8FA01224FF400411F
:100AAC00A24801F0A2FA6DE17B68022B2AD1002248
:100ABC004FF400719D4801F098FA00224FF48061C8
:100ACC009A4801F092FA01224FF40061974801F024
:100ADC008CFA00224FF48051944801F086FA0022DF
:100AEC004FF40051914801F080FA01224FF48041FB
:100AFC008E4801F07AFA00224FF400418B4801F045
:100B0C0074FA3FE17B68032B2AD100224FF4007169
:100B1C00864801F06AFA00224FF48061834801F0A4
:100B2C0064FA00224FF40061804801F05EFA002262
:100B3C004FF480517D4801F058FA01224FF40051D6
:100B4C007A4801F052FA01224FF48041774801F0C3
:100B5C004CFA00224FF40041744801F046FA11E1BE
:100B6C007B68042B2AD101224FF400716F4801F0ED
:100B7C003CFA00224FF480616C4801F036FA0022F6
:100B8C004FF40061694801F030FA01224FF48051B2
:100B9C00664801F02AFA01224FF40051634801F033
:100BAC0024FA00224FF48041604801F01EFA002222
:100BBC004FF400415D4801F018FAE3E07B68052B27
:100BCC002AD100224FF40071584801F00EFA01228C
:100BDC004FF48061554801F008FA00224FF400618F
:100BEC00524801F002FA00224FF480514F4801F0B4
:100BFC00FCF901224FF400514C4801F0F6F90022A7
:100C0C004FF48041494801F0F0F900224FF40041C3
:100C1C00464801F0EAF9B5E07B68062B2AD10022A0
:100C2C004FF40071414801F0E0F901224FF480616A
:100C3C003E4801F0DAF900224FF400613B4801F024
:100C4C00D4F900224FF48051384801F0CEF900223B
:100C5C004FF40051354801F0C8F900224FF480419F
:100C6C00324801F0C2F900224FF400412F4801F044
:100C7C00BCF987E07B68072B2AD100224FF4007166
:100C8C002A4801F0B2F900224FF48061274801F0A4
:100C9C00ACF900224FF40061244801F0A6F90122BE
:100CAC004FF48051214801F0A0F901224FF400517A
:100CBC001E4801F09AF901224FF480411B4801F0C3
:100CCC0094F901224FF40041184801F08EF959E0D3
:100CDC007B68082B2CD100224FF40071134801F0D3
:100CEC0084F900224FF48061104801F07EF9002253
:100CFC004FF400610D4801F078F900224FF4805157
:100D0C000A4801F072F900224FF40051074801F033
:100D1C006CF900224FF48041044801F066F900227E
:100D2C004FF40041014801F060F92BE0000C014048
:100D3C0000224FF40071154801F057F900224FF4CE
:100D4C008061124801F051F900224FF400610F4804
:100D5C0001F04BF900224FF480510C4801F045F999
:100D6C0001224FF40051094801F03FF900224FF4E1
:100D7C008041064801F039F900224FF40041034844
:100D8C0001F033F900BF0837BD4680BD000C0140AF
:100D9C0080B485B000AF786039603B680A2B15DDF4
:100DAC0039681F4B83FB01239A10CB17D21A1346B9
:100DBC009B0013445B00CA1AFA603B68184A82FB1A
:100DCC0003129210DB17D31ABB601CE03968144B6A
:100DDC0083FB01239A10CB17D21A13469B001344A2
:100DEC005B00CA1A002A0AD13B680D4A82FB031227
:100DFC009210DB17D31ABB600023FB6003E00023C7
:100E0C00BB603B68FB607B681A4607F1080393E8FC
:100E1C00030082E8030078681437BD4680BC704735
:100E2C006766666680B58AB000AFF860B9607A60B4
:100E3C003B6007F11C03F9681846FFF7A9FF07F19F
:100E4C001403B9681846FFF7A3FF00237B625AE02E
:100E5C007B6A002B22D1FB691846FFF739FC7B69B2
:100E6C001846FFF7C1FD002280212B4801F0BDF888
:100E7C0001224FF48071284801F0B7F800224FF49A
:100E8C000071254801F0B1F801224FF4806122482D
:100E9C0001F0ABF87B6A01337B6224E07B6A012BA7
:100EAC0021D13B6A1846FFF713FCBB691846FFF7C4
:100EBC009BFD01228021184801F097F800224FF485
:100ECC008071154801F091F801224FF4007112481D
:100EDC0001F08BF800224FF480610F4801F085F887
:100EEC007B6A01337B623B681B68012B0FD04FF48C
:100EFC00FA7000F01FFD00BF084B1B68002BFBD0E5
:100F0C00064B01221A607B6A022BA1D100E000BFC4
:100F1C002837BD4680BD00BF000801404C000020B2
:100F2C0080B586B000AFF860B9607A603B60002392
:100F3C007B61FB681A68BB681B689A4203DDBB685F
:100F4C001B687B6118E0FB681B687B6114E0FB6825
:100F5C001868BB6819683B687A68FFF763FF7B69A0
:100F6C00013B7B61BB681B685A1EBB681A60FB683F
:100F7C001B685A1EFB681A607B69002BE7D100BF07
:100F8C0000BF1837BD4680BD80B584B000AFF86097
:100F9C00B9607A603B606A4AFB681360694ABB6857
:100FAC001360694A7B681360684AFB681360684A7F
:100FBC00BB681360674A7B68136000220221664895
:100FCC0001F013F801220421634801F00EF801220C
:100FDC000821614801F009F8012210215E4801F056
:100FEC0004F8012220215C4800F0FFFF0022402180
:100FFC00594800F0FAFFBB691B68012B06D1BB698D
:10100C0000221A603868FFF79BF895E0BB693A68D4
:10101C004D494B48FFF784FF002202214E4800F057
:10102C00E4FF012204214C4800F0DFFF01220821DB
:10103C00494800F0DAFF01221021474800F0D5FFA3
:10104C0000222021444800F0D0FF012240214248D8
:10105C0000F0CBFFBB691B68012B06D1BB690022DA
:10106C001A603868FFF76CF866E0BB693A68354976
:10107C003348FFF755FF01220221374800F0B5FF36
:10108C0001220421344800F0B0FF0022082132482C
:10109C0000F0ABFF002210212F4800F0A6FF012228
:1010AC0020212D4800F0A1FF012240212A4800F008
:1010BC009CFFBB691B68012B06D1BB6900221A601F
:1010CC003868FFF73DF837E0BB693A681F4921489B
:1010DC00FFF726FF012202211F4800F086FF0022A5
:1010EC0004211D4800F081FF012208211A4800F05C
:1010FC007CFF00221021184800F077FF01222021EC
:10110C00154800F072FF01224021134800F06DFFDA
:10111C00BB691B68012B06D1BB6900221A603868B9
:10112C00FFF70EF808E0BB693A6808490848FFF772
:10113C00F7FE0A4B01221A601037BD4680BD00BF76
:10114C007C0000207400002084000020800000201F
:10115C007800002088000020000801404C0000208E
:10116C0080B586B000AFF860B9607A6000237B610F
:10117C0001220421454800F038FF01220821434890
:10118C0000F033FF01222021404800F02EFF012205
:10119C0040213E4800F029FF71E07B69002B2AD1E9
:1011AC007868FFF795FA0020FFF71EFC0022022159
:1011BC00364800F01AFF00221021344800F015FFC9
:1011CC0000224FF40071314800F00FFF01224FF460
:1011DC0080612E4800F009FF002280212B4800F08E
:1011EC0004FF01224FF48071284800F0FEFE7B6959
:1011FC0001337B612CE07B69012B29D17868FFF7E7
:10120C0067FA0220FFF7F0FB002202211F4800F0D2
:10121C00ECFE002210211D4800F0E7FE01224FF4E5
:10122C0000711A4800F0E1FE00224FF4806117486B
:10123C0000F0DBFE01228021144800F0D6FE0022D3
:10124C004FF48071114800F0D0FE7B6901337B6153
:10125C000F4B1B68012B06D10D4B00221A60F8684E
:10126C00FEF7F0FF0EE04FF4FA7000F063FB00BFE6
:10127C00084B1B68002BFBD0064B01221A607B69C4
:10128C00022B8AD11837BD4680BD00BF0008014033
:10129C00500000204C00002080B586B000AFF860F4
:1012AC00B9607A6000237B6101220221424800F080
:1012BC009CFE01220821404800F097FE01221021DB
:1012CC003D4800F092FE012240213B4800F08DFE8B
:1012DC000020FFF7FDF966E07B69002B2AD1B86886
:1012EC00FFF7F6F90020FFF77FFB002204213248BC
:1012FC0000F07BFE002220212F4800F076FE002219
:10130C004FF400712C4800F070FE01224FF4806104
:10131C00294800F06AFE00228021274800F065FE73
:10132C0001224FF48071244800F05FFE7B69013389
:10133C007B612CE07B69012B29D17868FFF7C8F918
:10134C000320FFF751FB012204211B4800F04DFE46
:10135C0001222021184800F048FE01224FF40071B0
:10136C00154800F042FE00224FF48061124800F054
:10137C003CFE01228021104800F037FE00224FF481
:10138C0080710D4800F031FE7B6901337B614FF4B5
:10139C00FA7000F0CFFA00BF084B1B68002BFBD093
:1013AC00064B01221A607B69022B95D100BF00BF4E
:1013BC001837BD4680BD00BF000801404C0000201E
:1013CC0080B586B000AFF860B9607A6000237B61AD
:1013DC0001220421424800F008FE0122022140486B
:1013EC0000F003FE012220213D4800F0FEFD012209
:1013FC0010213B4800F0F9FD0020FFF769F966E089
:10140C007B69002B2AD1B868FFF762F90020FFF73F
:10141C00EBFA00220821324800F0E7FD00224021BF
:10142C002F4800F0E2FD00224FF400712C4800F030
:10143C00DCFD01224FF48061294800F0D6FD00222A
:10144C008021274800F0D1FD01224FF480712448FF
:10145C0000F0CBFD7B6901337B612CE07B69012BB8
:10146C0029D17868FFF734F90420FFF7BDFA01227F
:10147C0008211B4800F0B9FD01224021184800F05A
:10148C00B4FD01224FF40071154800F0AEFD0022AE
:10149C004FF48061124800F0A8FD01228021104811
:1014AC0000F0A3FD00224FF480710D4800F09DFD6B
:1014BC007B6901337B614FF4FA7000F03BFA00BF9B
:1014CC00084B1B68002BFBD0064B01221A607B6972
:1014DC00022B95D100BF00BF1837BD4680BD00BFA1
:1014EC00000801404C00002090B589B004AF00F01A
:1014FC007BFA00F075F800F0FBF800F0ADF832481C
:10150C0001F0B8F94FF47A7000F014FA0323FB736E
:10151C000523BB6002237B6003233B602B4B002223
:10152C001A602B4B00221A602A4B00221A603B4691
:10153C003A1D07F1080107F10F00264C0294244CC8
:10154C000194224C0094FEF755FF07F10F031F493D
:10155C001846FEF703FFFB7B032B33D801A252F88E
:10156C0023F000BF8115000895150008A915000887
:10157C00BD150008B86879683A6807F10F03134C79
:10158C000094FFF701FD1EE0134B1968134B1A680A
:10159C0007F10F031846FFF7E3FD14E00E4B196833
:1015AC000E4B1A6807F10F031846FFF775FE0AE099
:1015BC00094B1968094B1A6807F10F031846FFF716
:1015CC00FFFE00E000BFB2E78C00002064000020AA
:1015DC00500000206C000020580000205400002017
:1015EC0080B590B000AF07F11803282200211846EF
:1015FC0001F0F0FC3B1D00221A605A609A60DA6020
:10160C001A610223BB610123BB621023FB6200231E
:10161C007B6307F11803184600F000FD0346002B0E
:10162C0001D000F0F4F80F237B600023BB60002393
:10163C00FB6000233B6100237B613B1D00211846AE
:10164C0000F06CFF0346002B01D000F0E0F800BF67
:10165C004037BD4680BD000080B586B000AF07F1B5
:10166C00080300221A605A609A60DA603B46002236
:10167C001A605A601D4B4FF080421A601B4B41F6AA
:10168C003F725A60194B00229A60184B0922DA609B
:10169C00164B00221A61154B00229A61134801F077
:1016AC0099F80346002B01D000F0B1F84FF48053A9
:1016BC00BB6007F1080319460C4801F017FA034602
:1016CC00002B01D000F0A3F800233B6000237B60CB
:1016DC003B461946054801F0EFFB0346002B01D0B1
:1016EC0000F095F800BF1837BD4680BD8C00002077
:1016FC0080B588B000AF07F1100300221A605A6061
:10170C009A60DA60354B9B69344A43F0100393615D
:10171C00324B9B6903F01003FB60FB682F4B9B69FA
:10172C002E4A43F0040393612C4B9B6903F0040392
:10173C00BB60BB68294B9B69284A43F00803936143
:10174C00264B9B6903F008037B607B68002244F204
:10175C00FF71234800F049FC00224FF6FF6121483D
:10176C0000F043FC4FF400533B6100237B610123E9
:10177C00BB6107F1100319461B4800F0A5FA44F2AF
:10178C00FF733B6101237B610023BB610223FB617F
:10179C0007F110031946124800F096FA4FF6FF6352
:1017AC003B6101237B610023BB610223FB6107F1D9
:1017BC00100319460B4800F087FA4FF460533B6155
:1017CC0000237B610123BB6107F110031946044818
:1017DC0000F07AFA00BF2037BD4680BD00100240F1
:1017EC0000080140000C01400010014080B582B09F
:1017FC0000AF786000F0B8F87B681B68B3F1804FDD
:10180C0001D1FEF7B5FE00BF0837BD4680BD80B4E0
:10181C0000AF72B600BFFEE780B485B000AF154BC9
:10182C009B69144A43F001039361124B9B6903F0CB
:10183C000103BB60BB680F4BDB690E4A43F080535E
:10184C00D3610C4BDB6903F080537B607B680A4BE4
:10185C005B68FB60FB6823F0E063FB60FB6843F0B4
:10186C008063FB60044AFB68536000BF1437BD46BD
:10187C0080BC7047001002400000014080B584B06D
:10188C0000AF78607B681B68B3F1804F13D10C4BB1
:10189C00DB690B4A43F00103D361094BDB6903F0AD
:1018AC000103FB60FB68002200211C2000F0D5F92D
:1018BC001C2000F0EEF900BF1037BD4680BD00BF04
:1018CC000010024080B400AFFEE780B400AFFEE72A
:1018DC0080B400AFFEE780B400AFFEE780B400AF89
:1018EC00FEE780B400AF00BFBD4680BC704780B43B
:1018FC0000AF00BFBD4680BC704780B400AF00BFD6
:10190C00BD4680BC704780B500AF00F0B3F800BF97
:10191C0080BD000080B500AF024800F0F7FF00BFAB
:10192C0080BD00BF8C00002080B400AF00BFBD465E
:10193C0080BC704780B483B000AF7860074B1B68E5
:10194C007A6892FBF3F3064A1360064B00221A6086
:10195C0000BF0C37BD4680BC704700BF080000209C
:10196C00480000204C00002080B400AF094B1B68DD
:10197C00002B0BDD074B1B68013B064A1360054B24
:10198C001B68002B02D1044B01221A6000BFBD461C
:10199C0080BC7047480000204C000020FFF7C4FFBB
:1019AC000B480C490C4A002302E0D458C4500433B1
:1019BC00C4188C42F9D3094A094C002301E0136086
:1019CC000432A242FBD301F0E1FAFFF78DFD704720
:1019DC0000000020140000203C30000814000020FF
:1019EC00D8000020FEE7000080B500AF084B1B6854
:1019FC00074A43F010031360032000F023F90F2073
:101A0C0000F008F8FFF708FF0023184680BD00BF60
:101A1C000020024080B582B000AF7860124B1A688B
:101A2C00124B1B7819464FF47A73B3FBF1F3B2FBEC
:101A3C00F3F3184600F03BF90346002B01D00123C9
:101A4C000EE07B680F2B0AD8002279684FF0FF302C
:101A5C0000F003F9064A7B681360002300E00123C1
:101A6C0018460837BD4680BD040000201000002039
:101A7C000C00002080B400AF054B1B781A46054BB8
:101A8C001B681344034A136000BFBD4680BC7047FB
:101A9C0010000020D400002080B400AF024B1B6863
:101AAC001846BD4680BC7047D400002080B485B079
:101ABC0000AF78607B6803F00703FB600C4BDB68BE
:101ACC00BB60BA684FF6FF031340BB60FB681A0299
:101ADC00BB68134343F0BF6343F40033BB60044A59
:101AEC00BB68D36000BF1437BD4680BC704700BFD5
:101AFC0000ED00E080B400AF044BDB681B0A03F080
:101B0C0007031846BD4680BC704700BF00ED00E0DF
:101B1C0080B483B000AF0346FB7197F90730002BFC
:101B2C000BDBFB7903F01F02064997F907305B09C1
:101B3C00012000FA02F241F8232000BF0C37BD4609
:101B4C0080BC704700E100E080B483B000AF034676
:101B5C003960FB7197F90730002B0ADB3B68DAB26E
:101B6C000C4997F907301201D2B20B4483F80023C9
:101B7C000AE03B68DAB20849FB7903F00F03043B37
:101B8C001201D2B20B441A7600BF0C37BD4680BC92
:101B9C00704700BF00E100E000ED00E080B489B0C8
:101BAC0000AFF860B9607A60FB6803F00703FB6173
:101BBC00FB69C3F10703042B28BF0423BB61FB693A
:101BCC000433062B02D9FB69033B00E000237B6145
:101BDC004FF0FF32BB6902FA03F3DA43BB681A40D9
:101BEC007B699A404FF0FF317B6901FA03F3D943CB
:101BFC007B680B40134318462437BD4680BC7047A6
:101C0C0080B582B000AF78607B68013BB3F1807F18
:101C1C0001D301230FE00A4A7B68013B53600F217B
:101C2C004FF0FF30FFF790FF054B00229A60044BFA
:101C3C0007221A60002318460837BD4680BD00BF36
:101C4C0010E000E080B582B000AF78607868FFF7F4
:101C5C002DFF00BF0837BD4680BD80B586B000AFF4
:101C6C000346B9607A60FB7300237B61FFF742FF88
:101C7C0078617A68B9687869FFF790FF024697F93E
:101C8C000F3011461846FFF75FFF00BF1837BD46EF
:101C9C0080BD80B582B000AF0346FB7197F9073069
:101CAC001846FFF735FF00BF0837BD4680BD80B52D
:101CBC0082B000AF78607868FFF7A2FF0346184641
:101CCC000837BD4680BD000080B48BB000AF786093
:101CDC00396000237B6200233B6248E101227B6A6E
:101CEC0002FA03F3FB613B681B68FA691340BB61A2
:101CFC00BA69FB699A4240F037813B685B68A34A3A
:101D0C0093425ED0A14A934275D8A14A934258D0CF
:101D1C009F4A93426FD89F4A934252D09D4A934216
:101D2C0069D89D4A93424CD09B4A934263D89B4AB4
:101D3C00934246D0994A93425DD8122B2AD8122B43
:101D4C0059D801A252F823F0CF1D0008A91D000894
:101D5C00BB1D0008FD1D0008031E0008031E000823
:101D6C00031E0008031E0008031E0008031E0008C3
:101D7C00031E0008031E0008031E0008031E0008B3
:101D8C00031E0008031E0008031E0008B11D0008F6
:101D9C00C51D0008824A934213D02CE03B68DB68D7
:101DAC003B6229E03B68DB6804333B6224E03B6820
:101DBC00DB6808333B621FE03B68DB680C333B623B
:101DCC001AE03B689B68002B02D104233B6213E0B2
:101DDC003B689B68012B05D108233B627B68FA6941
:101DEC001A6109E008233B627B68FA695A6103E0D7
:101DFC0000233B6200E000BFBB69FF2B01D87B686E
:101E0C0001E07B6804337B61BB69FF2B02D87B6AE2
:101E1C009B0002E07B6A083B9B003B617B691A6874
:101E2C000F213B6901FA03F3DB431A40396A3B6922
:101E3C0001FA03F31A437B691A603B685B6803F091
:101E4C008053002B00F09080564B9B69554A43F011
:101E5C0001039361534B9B6903F00103BB60BB68A7
:101E6C00514A7B6A9B08023352F82330FB607B6A31
:101E7C0003F003039B000F2202FA03F3DB43FA681F
:101E8C001340FB607B68494A93420DD07B68484AFB
:101E9C00934207D07B68474A934201D1022304E066
:101EAC00032302E0012300E000237A6A02F003021C
:101EBC0092009340FA681343FB603B497B6A9B0892
:101ECC000233FA6841F823203B685B6803F4801303
:101EDC00002B06D0384B9A683749BB6913438B608B
:101EEC0006E0354B9A68BB69DB43334913408B6082
:101EFC003B685B6803F40013002B06D02E4BDA68AA
:101F0C002D49BB691343CB6006E02B4BDA68BB69E8
:101F1C00DB4329491340CB603B685B6803F4003317
:101F2C00002B06D0244B5A682349BB6913434B60E2
:101F3C0006E0214B5A68BB69DB431F4913404B60D9
:101F4C003B685B6803F48033002B06D01A4B1A688D
:101F5C001949BB6913430B6006E0174B1A68BB6940
:101F6C00DB43154913400B607B6A01337B623B6892
:101F7C001A687B6A22FA03F3002B7FF4AFAE00BF22
:101F8C0000BF2C37BD4680BC704700BF000032102C
:101F9C00000031100000221000002110000012106F
:101FAC000000111000100240000001400008014028
:101FBC00000C0140001001400004014080B485B0C9
:101FCC0000AF78600B467B807B689A687B881340F7
:101FDC00002B02D00123FB7301E00023FB73FB7B7E
:101FEC0018461437BD4680BC704780B483B000AF30
:101FFC0078600B467B8013467B707B78002B03D07C
:10200C007A887B681A6103E07B881A047B681A6102
:10201C0000BF0C37BD4680BC7047000080B586B051
:10202C0000AF78607B68002B01D101236CE27B68E8
:10203C001B6803F00103002B00F08780924B5B6858
:10204C0003F00C03042B0CD08F4B5B6803F00C03D8
:10205C00082B12D18C4B5B6803F48033B3F5803FB3
:10206C000BD1894B1B6803F40033002B6CD07B68BD
:10207C005B68002B68D1012346E27B685B68B3F593
:10208C00803F06D1804B1B687F4A43F4803313603A
:10209C002EE07B685B68002B0CD17B4B1B687A4A6B
:1020AC0023F480331360784B1B68774A23F4802326
:1020BC0013601DE07B685B68B3F5A02F0CD1724BED
:1020CC001B68714A43F4802313606F4B1B686E4A84
:1020DC0043F4803313600BE06B4B1B686A4A23F4A8
:1020EC0080331360684B1B68674A23F480231360AA
:1020FC007B685B68002B13D0FFF7CEFC386108E0DF
:10210C00FFF7CAFC02463B69D31A642B01D903239F
:10211C00FAE15D4B1B6803F40033002BF0D014E0A4
:10212C00FFF7BAFC386108E0FFF7B6FC02463B69E2
:10213C00D31A642B01D90323E6E1534B1B6803F438
:10214C000033002BF0D100E000BF7B681B6803F06C
:10215C000203002B63D04C4B5B6803F00C03002B89
:10216C000BD0494B5B6803F00C03082B1CD1464B7E
:10217C005B6803F48033002B16D1434B1B6803F0D0
:10218C000203002B05D07B681B69012B01D00123B6
:10219C00BAE13D4B1B6823F0F8027B685B69DB00FE
:1021AC00394913430B603AE07B681B69002B20D044
:1021BC00364B01221A60FFF76FFC386108E0FFF71D
:1021CC006BFC02463B69D31A022B01D903239BE11A
:1021DC002D4B1B6803F00203002BF0D02A4B1B681D
:1021EC0023F0F8027B685B69DB00274913430B6023
:1021FC0015E0264B00221A60FFF74EFC386108E010
:10220C00FFF74AFC02463B69D31A022B01D9032380
:10221C007AE11D4B1B6803F00203002BF0D17B68A5
:10222C001B6803F00803002B3AD07B689B69002BDA
:10223C0019D0174B01221A60FFF72EFC386108E009
:10224C00FFF72AFC02463B69D31A022B01D9032360
:10225C005AE10D4B5B6A03F00203002BF0D0012016
:10226C0000F09AFA1CE00A4B00221A60FFF714FCEB
:10227C0038610FE0FFF710FC02463B69D31A022BC2
:10228C0008D9032340E100BF001002400000424285
:10229C00800442429E4B5B6A03F00203002BE9D19F
:1022AC007B681B6803F00403002B00F0A68000235E
:1022BC00FB75974BDB6903F08053002B0DD1944BCE
:1022CC00DB69934A43F08053D361914BDB6903F094
:1022DC008053BB60BB680123FB758E4B1B6803F4FA
:1022EC008073002B18D18B4B1B688A4A43F4807384
:1022FC001360FFF7D1FB386108E0FFF7CDFB024616
:10230C003B69D31A642B01D90323FDE0814B1B6875
:10231C0003F48073002BF0D07B68DB68012B06D1B3
:10232C007B4B1B6A7A4A43F0010313622DE07B68F6
:10233C00DB68002B0CD1764B1B6A754A23F001032A
:10234C001362734B1B6A724A23F0040313621CE082
:10235C007B68DB68052B0CD16D4B1B6A6C4A43F018
:10236C00040313626A4B1B6A694A43F0010313624C
:10237C000BE0674B1B6A664A23F001031362644B44
:10238C001B6A634A23F0040313627B68DB68002B2F
:10239C0015D0FFF781FB38610AE0FFF77DFB0246A1
:1023AC003B69D31A41F28832934201D90323ABE043
:1023BC00574B1B6A03F00203002BEED014E0FFF71F
:1023CC006BFB38610AE0FFF767FB02463B69D31AE7
:1023DC0041F28832934201D9032395E04C4B1B6A9E
:1023EC0003F00203002BEED1FB7D012B05D1484BF2
:1023FC00DB69474A23F08053D3617B68DB69002B90
:10240C0000F08180424B5B6803F00C03082B61D019
:10241C007B68DB69022B46D13F4B00221A60FFF729
:10242C003BFB386108E0FFF737FB02463B69D31AE8
:10243C00022B01D9032367E0354B1B6803F00073B3
:10244C00002BF0D17B681B6AB3F5803F08D1304B71
:10245C005B6823F400327B689B682D4913434B6007
:10246C002B4B5B6823F474127B68196A7B685B6A7C
:10247C000B43274913434B60274B01221A60FFF78C
:10248C000BFB386108E0FFF707FB02463B69D31AE8
:10249C00022B01D9032337E01D4B1B6803F000739B
:1024AC00002BF0D02FE01C4B00221A60FFF7F4FA3F
:1024BC00386108E0FFF7F0FA02463B69D31A022BA9
:1024CC0001D9032320E0124B1B6803F00073002B8F
:1024DC00F0D118E07B68DB69012B01D1012313E0FB
:1024EC000B4B5B68FB60FB6803F480327B681B6AF8
:1024FC009A4206D1FB6803F470127B685B6A9A42BD
:10250C0001D0012300E0002318461837BD4680BDDA
:10251C0000100240007000406000424280B584B060
:10252C0000AF786039607B68002B01D10123D0E0CB
:10253C006A4B1B6803F007033A689A4210D9674B41
:10254C001B6823F0070265493B6813430B60634B20
:10255C001B6803F007033A689A4201D00123B8E0E4
:10256C007B681B6803F00203002B20D07B681B6880
:10257C0003F00403002B05D0594B5B68584A43F415
:10258C00E06353607B681B6803F00803002B05D0E5
:10259C00534B5B68524A43F460535360504B5B6837
:1025AC0023F0F0027B689B684D4913434B607B68BA
:1025BC001B6803F00103002B40D07B685B68012B88
:1025CC0007D1474B1B6803F40033002B15D10123B3
:1025DC007FE07B685B68022B07D1414B1B6803F0E3
:1025EC000073002B09D1012373E03D4B1B6803F0F2
:1025FC000203002B01D101236BE0394B5B6823F004
:10260C0003027B685B68364913434B60FFF744FA5F
:10261C00F8600AE0FFF740FA0246FB68D31A41F271
:10262C008832934201D9032353E02D4B5B6803F0AE
:10263C000C027B685B689B009A42EBD1274B1B68B2
:10264C0003F007033A689A4210D2244B1B6823F01C
:10265C00070222493B6813430B60204B1B6803F0B5
:10266C0007033A689A4201D0012332E07B681B6869
:10267C0003F00403002B08D0194B5B6823F4E062D1
:10268C007B68DB68164913434B607B681B6803F05F
:10269C000803002B09D0124B5B6823F460527B6853
:1026AC001B69DB000E4913434B6000F021F8024616
:1026BC000B4B5B681B0903F00F030A49CB5C22FA36
:1026CC0003F3094A1360094B1B681846FFF7A2F97C
:1026DC00002318461037BD4680BD00BF00200240C5
:1026EC000010024010300008040000200C000020F4
:1026FC0080B487B000AF0023FB600023BB600023D5
:10270C007B6100237B6000233B611E4B5B68FB609D
:10271C00FB6803F00C03042B02D0082B03D027E03A
:10272C00194B3B6127E0FB689B0C03F00F03174A26
:10273C00D35C7B60FB6803F48033002B10D0114B0F
:10274C005B685B0C03F00103114AD35CBB607B68D4
:10275C000D4A02FB03F2BB68B2FBF3F37B6104E0AE
:10276C007B680C4A02FB03F37B617B693B6102E0F3
:10277C00054B3B6100BF3B6918461C37BD4680BC0E
:10278C00704700BF0010024000127A002030000891
:10279C003030000800093D0080B485B000AF78608F
:1027AC000A4B1B680A4AA2FB03235B0A7A6802FBEA
:1027BC0003F3FB6000BFFB685A1EFA60002BF9D1D3
:1027CC0000BF00BF1437BD4680BC7047040000201A
:1027DC00D34D621080B582B000AF78607B68002B5F
:1027EC0001D1012341E07B6893F83D30DBB2002B33
:1027FC0006D17B68002283F83C207868FFF73EF80E
:10280C007B68022283F83D207B681A687B6804335E
:10281C001946104600F056FA7B68012283F84620D0
:10282C007B68012283F83E207B68012283F83F20DD
:10283C007B68012283F840207B68012283F84120C9
:10284C007B68012283F842207B68012283F84320B5
:10285C007B68012283F844207B68012283F84520A1
:10286C007B68012283F83D20002318460837BD46BB
:10287C0080BD000080B485B000AF78607B6893F8B1
:10288C003D30DBB2012B01D0012335E07B68022205
:10289C0083F83D207B681B68DA687B681B6842F014
:1028AC000102DA607B681B68164A934209D07B6888
:1028BC001B68B3F1804F04D07B681B68124A9342AB
:1028CC0011D17B681B689B6803F00703FB60FB68F6
:1028DC00062B10D07B681B681A687B681B6842F05B
:1028EC0001021A6007E07B681B681A687B681B682A
:1028FC0042F001021A60002318461437BD4680BC12
:10290C00704700BF002C01400004004080B584B02B
:10291C0000AF78607B681B68DB68FB607B681B68BA
:10292C001B69BB60BB6803F00203002B20D0FB6863
:10293C0003F00203002B1BD07B681B686FF00202B4
:10294C001A617B6801221A777B681B689B6903F00C
:10295C000303002B03D0786800F098F905E0786841
:10296C0000F08BF9786800F09AF97B6800221A77EE
:10297C00BB6803F00403002B20D0FB6803F00403B6
:10298C00002B1BD07B681B686FF004021A617B68FC
:10299C0002221A777B681B689B6903F44073002B37
:1029AC0003D0786800F072F905E0786800F065F9FA
:1029BC00786800F074F97B6800221A77BB6803F022
:1029CC000803002B20D0FB6803F00803002B1BD05E
:1029DC007B681B686FF008021A617B6804221A7707
:1029EC007B681B68DB6903F00303002B03D078685A
:1029FC0000F04CF905E0786800F03FF9786800F0D9
:102A0C004EF97B6800221A77BB6803F01003002B89
:102A1C0020D0FB6803F01003002B1BD07B681B68D5
:102A2C006FF010021A617B6808221A777B681B68AA
:102A3C00DB6903F44073002B03D0786800F026F9AF
:102A4C0005E0786800F019F9786800F028F97B68DF
:102A5C0000221A77BB6803F00103002B0CD0FB6833
:102A6C0003F00103002B07D07B681B686FF0010299
:102A7C001A617868FEF7BAFEBB6803F08003002B7E
:102A8C000CD0FB6803F08003002B07D07B681B681D
:102A9C006FF080021A61786800F06FFABB6803F07F
:102AAC004003002B0CD0FB6803F04003002B07D035
:102ABC007B681B686FF040021A61786800F0F8F8C8
:102ACC00BB6803F02003002B0CD0FB6803F0200341
:102ADC00002B07D07B681B686FF020021A617868A6
:102AEC0000F042FA00BF1037BD4680BD80B584B0FF
:102AFC0000AF786039600023FB737B6893F83C303F
:102B0C00012B01D10223B4E07B68012283F83C2025
:102B1C007B68022283F83D207B681B689B68BB6046
:102B2C00BB6823F07703BB60BB6823F47F43BB60B7
:102B3C007B681B68BA689A603B681B68B3F5005FDA
:102B4C003ED0B3F5005F00F28780B3F5805F00F0F4
:102B5C008680B3F5805F7FD8702B1AD0702B7BD812
:102B6C00602B50D0602B77D8502B3CD0502B73D887
:102B7C00402B58D0402B6FD8302B64D0302B6BD8D7
:102B8C00202B60D0202B67D8002B5CD0102B5AD078
:102B9C0062E07B6818683B6899683B685A683B68D8
:102BAC00DB6800F06AF97B681B689B68BB60BB68DC
:102BBC0043F07703BB607B681B68BA689A604FE090
:102BCC007B6818683B6899683B685A683B68DB68A7
:102BDC0000F053F97B681B689A687B681B6842F4A9
:102BEC0080429A603CE07B6818683B6859683B6897
:102BFC00DB681A4600F0CAF87B681B68502118463F
:102C0C0000F021F92CE07B6818683B6859683B6838
:102C1C00DB681A4600F0E8F87B681B6860211846F0
:102C2C0000F011F91CE07B6818683B6859683B6838
:102C3C00DB681A4600F0AAF87B681B68402118462E
:102C4C0000F001F90CE07B681A683B681B681946B8
:102C5C00104600F0F8F803E00123FB7300E000BF1E
:102C6C007B68012283F83D207B68002283F83C209E
:102C7C00FB7B18461037BD4680BD80B483B000AFD7
:102C8C00786000BF0C37BD4680BC704780B483B001
:102C9C0000AF786000BF0C37BD4680BC704780B475
:102CAC0083B000AF786000BF0C37BD4680BC704766
:102CBC0080B483B000AF786000BF0C37BD4680BCD9
:102CCC007047000080B485B000AF786039607B68D5
:102CDC001B68FB607B682B4A934207D07B68B3F17F
:102CEC00804F03D07B68284A934208D1FB6823F0BD
:102CFC007003FB603B685B68FA681343FB607B689E
:102D0C00204A934207D07B68B3F1804F03D07B6895
:102D1C001D4A934208D1FB6823F44073FB603B6867
:102D2C00DB68FA681343FB60FB6823F080023B68A6
:102D3C005B691343FB607B68FA681A603B689A68AE
:102D4C007B68DA623B681A687B689A627B680D4A1A
:102D5C00934203D13B681A697B681A637B68012232
:102D6C005A617B681B6903F00103002B05D07B685B
:102D7C001B6923F001027B681A6100BF1437BD4642
:102D8C0080BC7047002C01400004004080B487B028
:102D9C0000AFF860B9607A60FB681B6A7B61FB6806
:102DAC001B6A23F00102FB681A62FB689B693B619A
:102DBC003B6923F0F0033B617B681B013A691343C9
:102DCC003B617B6923F00A037B617A69BB6813431F
:102DDC007B61FB683A699A61FB687A691A6200BF89
:102DEC001C37BD4680BC704780B487B000AFF8601C
:102DFC00B9607A60FB681B6A7B61FB681B6A23F015
:102E0C001002FB681A62FB689B693B613B6923F407
:102E1C0070433B617B681B033A6913433B617B69DD
:102E2C0023F0A0037B61BB681B017A6913437B61B0
:102E3C00FB683A699A61FB687A691A6200BF1C37B1
:102E4C00BD4680BC704780B485B000AF78603960F7
:102E5C007B689B68FB60FB6823F07003FB603A683F
:102E6C00FB68134343F00703FB607B68FA689A60C6
:102E7C0000BF1437BD4680BC704780B487B000AF2C
:102E8C00F860B9607A603B60FB689B687B617B692A
:102E9C0023F47F437B613B681A027B681A43BB684F
:102EAC0013437A6913437B61FB687A699A6000BFAC
:102EBC001C37BD4680BC704780B485B000AF7860CD
:102ECC0039607B6893F83C30012B01D1022341E03F
:102EDC007B68012283F83C207B68022283F83D202A
:102EEC007B681B685B68FB607B681B689B68BB60CE
:102EFC00FB6823F07003FB603B681B68FA681343A4
:102F0C00FB607B681B68FA685A607B681B68144A14
:102F1C00934209D07B681B68B3F1804F04D07B6867
:102F2C001B68104A93420CD1BB6823F08003BB6032
:102F3C003B685B68BA681343BB607B681B68BA6804
:102F4C009A607B68012283F83D207B68002283F81D
:102F5C003C20002318461437BD4680BC704700BF88
:102F6C00002C01400004004080B483B000AF7860B6
:102F7C0000BF0C37BD4680BC704780B483B000AF37
:102F8C00786000BF0C37BD4680BC704770B500261A
:102F9C000C4D0D4C641BA410A64209D100F022F874
:102FAC0000260A4D0A4C641BA410A64205D170BD24
:102FBC0055F8043B98470136EEE755F8043B984723
:102FCC000136F2E7343000083430000834300008A1
:102FDC003830000803460244934200D1704703F88E
:102FEC00011BF9E7F8B500BFF8BC08BC9E4670475A
:0C2FFC00F8B500BFF8BC08BC9E4670474A
:103008000008001000200000000000000000000080
:103018000102030406070809020304050607080954
:0C3028000A0B0C0D0E0F1010010200002E
:04303400310100085E
:043038000D0100087E
:10303C000102030000127A000A00000010000000D8
:04304C00010000007F
:04000005080019A92D
:00000001FF
