:020000040800F2
:1000000000500020B11600086D1500087315000897
:10001000791500087F15000885150008000000000C
:100020000000000000000000000000008B15000828
:100030009715000800000000A3150008AF15000880
:10004000F9160008F9160008F9160008F916000854
:10005000F9160008F9160008F9160008F916000844
:10006000F9160008F9160008F9160008F916000834
:10007000F9160008F9160008F9160008F916000824
:10008000F9160008F9160008F9160008F916000814
:10009000F9160008F9160008F9160008F916000804
:1000A000F9160008F9160008F9160008F9160008F4
:1000B000BD150008F9160008F9160008F916000821
:1000C000F9160008F9160008F9160008F9160008D4
:1000D000F9160008F9160008F9160008F9160008C4
:1000E000F9160008F9160008F916000800000000CB
:1000F0000000000000000000000000000000000000
:0C01000000000000000000005FF808F1A3
:10010C0010B5054C237833B9044B13B10448AFF345
:10011C0000800123237010BD84000020000000002B
:10012C000038000808B5034B1BB103490348AFF373
:10013C00008008BD00000000880000200038000886
:10014C0080B586B002AF0346FB71FB7923F00F0339
:10015C00FB73FB791B01BB73FB7B43F00C03DBB222
:10016C003B72FB7B43F00803DBB27B72BB7B43F03F
:10017C000C03DBB2BB72BB7B43F00803DBB2FB723C
:10018C0007F108026423009304234221034801F081
:10019C003BFF00BF1037BD4680BD00BFF8000020FC
:1001AC0080B586B002AF0346FB71FB7923F00F03D9
:1001BC00FB73FB791B01BB73FB7B43F00D03DBB2C1
:1001CC003B72FB7B43F00903DBB27B72BB7B43F0DE
:1001DC000D03DBB2BB72BB7B43F00903DBB2FB72DA
:1001EC0007F108026423009304234221034801F021
:1001FC000BFF00BF1037BD4680BD00BFF8000020CC
:10020C0080B500AF3320FFF79BFF3220FFF798FF3C
:10021C00322001F0CFFA2820FFF792FF322001F0B4
:10022C00C9FA0120FFF78CFF322001F0C3FA062037
:10023C00FFF786FF322001F0BDFA0C20FFF780FF9C
:10024C00322001F0B7FA0220FFF77AFF322001F0DA
:10025C00B1FA8020FFF774FF00BF80BD80B582B07B
:10026C0000AF786006E07B685A1C7A601B781846F1
:10027C00FFF796FF7B681B78002BF4D100BF00BF03
:10028C000837BD4680BD80B584B000AF786039605A
:10029C007B68012B08D17B68DAB23B68DBB2134474
:1002AC00DBB27F33FB7308E03B68DBB24033DBB27D
:1002BC005BB263F07F035BB2FB73FB7B1846FFF70B
:1002CC003FFF00BF1037BD4680BD000080B582B037
:1002DC0002AF1D4B1B78032B31D801A252F823F02F
:1002EC00FD02000815030008270300083903000865
:1002FC00164B1868164B1968164B1A68164B009358
:10030C00114B00F02DFC1BE0144B1B68144A1268B7
:10031C0019460D4800F0E0FC12E0104B1B68104A27
:10032C0012681946084800F08FFD09E00B4B1B685A
:10033C000B4A12681946044800F03EFE00E000BF6C
:10034C0000BFBD4680BD00BF00000020080000209B
:10035C000C00002010000020C0000020B80000207D
:10036C00BC00002080B400AF154B1A78154B1B78DD
:10037C009A4203D1124B01221A701CE0104B1A78CE
:10038C00114B1B789A4203D10D4B02221A7012E0CA
:10039C000B4B1A780D4B1B789A4203D1084B032256
:1003AC001A7008E0064B1A78094B1B789A4202D156
:1003BC00034B00221A7000BFBD4680BC704700BFC3
:1003CC0000000020A00000200100002002000020FE
:1003DC000300002080B485B000AF786039603B68C2
:1003EC000A2B15DD39681F4B83FB01239A10CB17A1
:1003FC00D21A13469B0013445B00CA1AFA603B687E
:10040C00184A82FB03129210DB17D31ABB601CE054
:10041C003968144B83FB01239A10CB17D21A13465D
:10042C009B0013445B00CA1A002A0AD13B680D4A90
:10043C0082FB03129210DB17D31ABB600023FB6004
:10044C0003E00023BB603B68FB607B681A4607F146
:10045C00080393E8030082E8030078681437BD466C
:10046C0080BC70476766666680B586B000AF3A4B55
:10047C001A783A4B1B789A426AD0374B1A78384B19
:10048C001B789A421DD1374B00221A60364B1B68E1
:10049C000133354A1360344B1B68632B02DD324B3E
:1004AC0000221A60304B1A6807F1100311461846E7
:1004BC00FFF790FF3B692D4A13607B692C4A136050
:1004CC0047E0254B1A782B4B1B789A421DD1264BB3
:1004DC0000221A60284B1B680133274A1360264BF5
:1004EC001B68632B02DD244B00221A60224B1A6816
:1004FC0007F1080311461846FFF76CFFBB681B4A4F
:10050C001360FB681A4A136023E0134B1A781B4BD9
:10051C001B789A421DD1184B00221A60114B1B6894
:10052C000133104A13600F4B1B68632B02DD0D4B1C
:10053C0000221A600B4B1A683B4611461846FFF70F
:10054C0049FF3B68094A13607B68094A136000E065
:10055C0000BF1837BD4680BD00000020A000002061
:10056C0001000020B4000020AC000020B8000020E6
:10057C00BC00002002000020B0000020030000207E
:10058C0080B500AF1F4B1B78022B2AD0022B37DC17
:10059C00002B02D0012B0DD032E01B4B1B68012B22
:1005AC0029D1184B01221A70174B00221A60FFF741
:1005BC00D9FE20E0002000F0D5F90346002B03D132
:1005CC00104B00221A7018E00F4B1B68012B14D132
:1005DC000C4B02221A700C4B00221A60FFF7C2FE61
:1005EC000BE0002000F0BEF90346002B07D1054BB1
:1005FC0000221A7003E000BF02E000BF00E000BF61
:10060C0000BF80BDA1000020C000002080B500AF5D
:10061C006E4B1B78022B00F09780022B00F3D480DA
:10062C00002B02D0012B77D0CEE0694B1B68012B3D
:10063C0007D1664B01221A70654B00221A60FFF736
:10064C0013FF644B1B68012B20D1634B00221A60F3
:10065C00624B00221A60624B1A78624B1B789A42EA
:10066C0002D1614B00221A605D4B1A785F4B1B78EC
:10067C009A4202D15E4B00221A60594B1A785D4B9C
:10068C001B789A4202D15C4B00221A605B4B1B68B0
:10069C00012B40F09980594B00221A60504B1A786C
:1006AC00504B1B789A4208D14F4B1B68002B04DD32
:1006BC004D4B1B68524A13602DE0494B1A784B4B3B
:1006CC001B789A4208D14A4B1B68002B04DD484B1F
:1006DC001B684C4A13601EE0414B1A78454B1B7843
:1006EC009A426CD1444B1B68002B68DD424B1B6853
:1006FC00454A1360444B1A68424B1B681A44404BE2
:10070C001B689A425BD0404B1A683E4B1B681344E3
:10071C003B4A136053E052E04FF480513B4801F0E8
:10072C00FFFA0346184600F01DF90346002B03D1CF
:10073C00264B00221A7044E0354B1B68012B40D12C
:10074C00224B02221A703CE0314B1B68002B02D169
:10075C001E4B00221A70FFF787FE4FF4FA7000F060
:10076C006DFF2B4B1B68002B23D11D4B1A781D4B97
:10077C001B789A4205D11C4B1B68033B1A4A136029
:10078C0021E0174B1A78194B1B789A4205D1184B5C
:10079C001B68033B164A136015E0114B1A78154B76
:1007AC001B789A420FD1144B1B68033B124A1360FF
:1007BC0009E000BF174B1B68002BFBD004E000BF07
:1007CC0002E000BF00E000BF80BD00BFA20000201F
:1007DC00C4000020C0000020B8000020BC00002095
:1007EC000000002001000020AC00002002000020CE
:1007FC00B000002003000020B4000020C80000203E
:10080C00080000200C00002010000020000801400F
:10081C00D0000020A800002090B583B000AF0023CA
:10082C00FB717CE0FA79FB794149895C414AD154EE
:10083C00FB79414A32F81330FC7919463F4801F0F4
:10084C006FFA03461A463A4B1A55FB79384AD25C72
:10085C00FB793849CB5C9A4205D1FA79FB7934495A
:10086C00895C374AD154FB79354AD35C002B38D19B
:10087C00FB79002B02D1334B01221A60FB79012B3F
:10088C0002D1314B01221A60FB79022B02D12F4B82
:10089C0001221A60FB792E4A32F81330632B09D8E7
:1008AC00FB792B4A32F81320013291B2284A22F8F4
:1008BC00131031E0FB79274A0121D154FB79002B2D
:1008CC0002D1254B01221A60FB79012B02D1234B5B
:1008DC0001221A60FB79022B1ED1214B01221A60D6
:1008EC001AE0FB79002B02D11B4B00221A60FB791A
:1008FC00012B02D1194B00221A60FB79022B02D179
:10090C00174B00221A60FB79114A002122F81310B0
:10091C00FB79104A0021D154FB790133FB71FB792F
:10092C00022B7FF67FAF00BF00BF0C37BD4690BDDA
:10093C00D8000020DC000020D0380008000C01405A
:10094C004C010020C0000020C4000020C800002082
:10095C00E4000020E0000020CC000020D0000020AB
:10096C00D400002080B483B000AF0346FB71FB7948
:10097C00022B01D9002307E0FB79064AD35C002B3C
:10098C000CBF01230023DBB218460C37BD4680BCDC
:10099C00704700BF4C01002080B588B000AF786074
:1009AC007B68FB610023BB6100237B617B68002BB0
:1009BC0004DA01237B617B685B427B60BB6901339A
:1009CC00BB61FB69264A82FB03129210DB17D31A18
:1009DC00FB61FB69002BF1D1BA697B6913440133CC
:1009EC00184602F07FFE0346FB60BA697B6913442C
:1009FC001A46FB68134400221A70BA697B691344C7
:100A0C00013B3B611DE07A68154B83FB0213991087
:100A1C00D317C91A0B469B000B445B00D11ACAB200
:100A2C003B69F9680B443032D2B21A707B680C4ABD
:100A3C0082FB03129210DB17D31A7B603B69013BDC
:100A4C003B613A697B699A42DDDA7B69002B02D003
:100A5C00FB682D221A70FB6818462037BD4680BDF6
:100A6C006766666680B588B000AFF860B9607A607A
:100A7C003B60F868FFF790FFF861B868FFF78CFFF0
:100A8C00B8611A4B7B611A4B3B6100210020FFF7C8
:100A9C00FAFB7869FFF7E2FB0A210020FFF7F3FB72
:100AAC00F869FFF7DBFB00210120FFF7ECFB38694D
:100ABC00FFF7D4FB0A210120FFF7E5FBB869FFF72C
:100ACC00CDFB3B681B68012B0CD04FF47A7000F007
:100ADC00B5FD00BF074B1B68002BFBD0054B01225B
:100AEC001A6000E000BF2037BD4680BD18380008F2
:100AFC002C380008A800002080B586B000AFF86044
:100B0C00B9607A603B6000237B61FB681A68BB6844
:100B1C001B689A4203DDBB681B687B6118E0FB68AD
:100B2C001B687B6114E0FB681868BB6819683B683C
:100B3C007A68FFF797FF7B69013B7B61BB681B6899
:100B4C005A1EBB681A60FB681B685A1EFB681A6049
:100B5C007B69002BE7D100BF00BF1837BD4680BDB5
:100B6C0080B584B000AFF860B9607A603B60504AE1
:100B7C00FB6813604F4ABB6813604F4A7B68136075
:100B8C004E4AFB6813604E4ABB6813604D4A7B6843
:100B9C00136001224FF480714B4801F0D8F8002209
:100BAC004FF40071484801F0D2F8012280214748E7
:100BBC0001F0CDF801224021454801F0C8F8BB698D
:100BCC001B68012B69D0BB693A683B493848FFF771
:100BDC0093FF00224FF480713B4801F0B8F80122DA
:100BEC004FF40071384801F0B2F8012280213748E7
:100BFC0001F0ADF801224021354801F0A8F8BB699D
:100C0C001B68012B4BD0BB693A682A492848FFF76F
:100C1C0073FF01224FF480712B4801F098F80122E8
:100C2C004FF40071284801F092F8012280212748E6
:100C3C0001F08DF800224021254801F088F8BB69AD
:100C4C001B68012B2DD0BB693A681C491D48FFF766
:100C5C0053FF01224FF480711B4801F078F80122F8
:100C6C004FF40071184801F072F8002280211748E7
:100C7C0001F06DF801224021154801F068F8BB69BC
:100C8C001B68012B0FD0BB693A680C490C48FFF765
:100C9C0033FF104B01221A6006E000BF04E000BFD6
:100CAC0002E000BF00E000BF1037BD4680BD00BFB2
:100CBC005801002050010020600100205C01002040
:100CCC005401002064010020000801400010014084
:100CDC00000C0140A800002080B58AB000AFF8607D
:100CEC00B9607A6000237B6200224FF480714D481A
:100CFC0001F02DF800224FF400714A4801F027F85A
:100D0C0000228021484801F022F800224021474867
:100D1C0001F01DF8BA6813469B0013445B001A4699
:100D2C007B6813443B62424B1B681846FFF734FE4A
:100D3C00F861404BBB61404B7B6100210020FFF709
:100D4C00A2FAB869FFF78AFA00210120FFF79BFA93
:100D5C007869FFF783FA08210120FFF794FAF86904
:100D6C00FFF77CFA55E07B6A002B19D101224FF476
:100D7C0080712C4800F0EBFF01224FF400712948E0
:100D8C0000F0E5FF01228021274800F0E0FF01225E
:100D9C004021264800F0DBFF7B6A01337B621BE0BD
:100DAC007B6A012B18D100224FF480711D4800F092
:100DBC00CEFF00224FF400711A4800F0C8FF002249
:100DCC008021194800F0C3FF00224021174800F091
:100DDC00BEFF7B6A01337B62184B1B68012B1CD056
:100DEC00174B1B68012B08D1642000F027FC00BFB7
:100DFC00144B1B68002BFBD010E04FF4FA7000F082
:100E0C001DFC00BF0F4B1B68002BFBD00D4B0122B0
:100E1C001A607B6A022BA6D100E000BF2837BD46C2
:100E2C0080BD00BF0008014000100140000C0140D3
:100E3C00AC000020403800085C380008C4000020DA
:100E4C00C0000020A800002080B58AB000AFF86078
:100E5C00B9607A6000237B6200224FF480714D48A8
:100E6C0000F075FF00224FF400714A4800F06FFF4C
:100E7C0000228021484800F06AFF002240214748A8
:100E8C0000F065FFBA6813469B0013445B001A46DA
:100E9C007B6813443B62424B1B681846FFF77CFD92
:100EAC00F861404BBB61404B7B6100210020FFF798
:100EBC00EAF9B869FFF7D2F900210120FFF7E3F94D
:100ECC007869FFF7CBF908210120FFF7DCF9F86905
:100EDC00FFF7C4F955E07B6A002B19D100224FF4BF
:100EEC0080712C4800F033FF01224FF40071294827
:100EFC0000F02DFF00228021274800F028FF01225E
:100F0C004021264800F023FF7B6A01337B621BE003
:100F1C007B6A012B18D100224FF480711D4800F020
:100F2C0016FF00224FF400711A4800F010FF002247
:100F3C008021194800F00BFF00224021174800F0D7
:100F4C0006FF7B6A01337B62184B1B68012B1CD09C
:100F5C00174B1B68012B08D1642000F06FFB00BFFE
:100F6C00144B1B68002BFBD010E04FF4FA7000F010
:100F7C0065FB00BF0F4B1B68002BFBD00D4B0122F8
:100F8C001A607B6A022BA6D100E000BF2837BD4651
:100F9C0080BD00BF0008014000100140000C014062
:100FAC00B0000020783800085C380008C40000202D
:100FBC00C0000020A800002080B58AB000AFF86007
:100FCC00B9607A6000237B6200224FF480714D4837
:100FDC0000F0BDFE00224FF400714A4800F0B7FE4D
:100FEC0000228021484800F0B2FE002240214748F0
:100FFC0000F0ADFEBA6813469B0013445B001A4622
:10100C007B6813443B62424B1B681846FFF7C4FCD9
:10101C00F861404BBB61404B7B6100210020FFF726
:10102C0032F9B869FFF71AF900210120FFF72BF903
:10103C007869FFF713F908210120FFF724F9F86903
:10104C00FFF70CF955E07B6A002B19D101224FF404
:10105C0080712C4800F07BFE00224FF4007129486F
:10106C0000F075FE01228021274800F070FE00225E
:10107C004021264800F06BFE7B6A01337B621BE04B
:10108C007B6A012B18D100224FF480711D4800F0AF
:10109C005EFE00224FF400711A4800F058FE002248
:1010AC008021194800F053FE00224021174800F01F
:1010BC004EFE7B6A01337B62184B1B68012B1CD0E4
:1010CC00174B1B68012B08D1642000F0B7FA00BF46
:1010DC00144B1B68002BFBD010E04FF4FA7000F09F
:1010EC00ADFA00BF0F4B1B68002BFBD00D4B012240
:1010FC001A607B6A022BA6D100E000BF2837BD46E0
:10110C0080BD00BF0008014000100140000C0140F0
:10111C00B400002090380008B0380008C40000204B
:10112C00C0000020A800002080B500AF00F0E0FA5D
:10113C0000F022F800F0D6F800F088F800F058F82B
:10114C000B4801F003FFFFF75BF84FF47A7000F0E7
:10115C0075FA084B1B68012BFBD1FFF711FAFFF74F
:10116C0055FAFFF7B3F8034B01221A60F1E700BF01
:10117C0068010020A800002080B590B000AF07F1F6
:10118C00180328220021184602F0B4FA3B1D002255
:10119C001A605A609A60DA601A610223BB610123FB
:1011AC00BB621023FB6200237B6307F11803184614
:1011BC0001F082FA0346002B01D000F026F90F2330
:1011CC007B600023BB600023FB6000233B6100239A
:1011DC007B613B1D0021184601F0EEFC0346002B01
:1011EC0001D000F012F900BF4037BD4680BD0000B1
:1011FC0080B500AF124B134A1A60114B124A5A6059
:10120C000F4B00229A600E4B0022DA600C4B4FF40D
:10121C0080421A610A4B00225A61094B00229A61E2
:10122C00074B0022DA61064B00221A62044800F0D8
:10123C00A7FD0346002B01D000F0E7F800BF80BDEE
:10124C00F800002000540040A086010080B586B054
:10125C0000AF07F1080300221A605A609A60DA6046
:10126C003B4600221A605A601D4B4FF080421A60B8
:10127C001B4B41F63F725A60194B00229A60184B77
:10128C000922DA60164B00221A61154B00229A6172
:10129C00134801F00BFE0346002B01D000F0B5F80B
:1012AC004FF48053BB6007F1080319460C4801F05A
:1012BC008FFF0346002B01D000F0A7F800233B6002
:1012CC0000237B603B461946054802F071F9034642
:1012DC00002B01D000F099F800BF1837BD4680BD37
:1012EC006801002080B588B000AF07F11003002220
:1012FC001A605A609A60DA60374B9B69364A43F041
:10130C0008039361344B9B6903F00803FB60FB6893
:10131C00314B9B69304A43F0100393612E4B9B6910
:10132C0003F01003BB60BB682B4B9B692A4A43F04C
:10133C0004039361284B9B6903F004037B607B6877
:10134C0000228021254800F002FD00224FF440715C
:10135C00234800F0FCFC00224021224800F0F7FC5E
:10136C004FF487633B6100237B610123BB6107F171
:10137C00100319461B4800F04FFB80233B610123EF
:10138C007B610023BB610223FB6107F1100319464B
:10139C00124800F041FB4FF440733B6101237B6129
:1013AC000023BB610223FB6107F1100319460C48B3
:1013BC0000F032FB40233B6101237B610023BB61C6
:1013CC000223FB6107F110031946064800F024FBC9
:1013DC0000BF2037BD4680BD001002400010014008
:1013EC0000080140000C014080B582B000AF78606D
:1013FC0000F03EF97B681B68B3F1804F01D1FFF719
:10140C000BFA00BF0837BD4680BD80B400AF72B682
:10141C0000BFFEE780B485B000AF154B9B69144A42
:10142C0043F001039361124B9B6903F00103BB6012
:10143C00BB680F4BDB690E4A43F08053D3610C4BF6
:10144C00DB6903F080537B607B680A4B5B68FB6055
:10145C00FB6823F0E063FB60FB6843F00073FB6008
:10146C00044AFB68536000BF1437BD4680BC70470C
:10147C00001002400000014080B58AB000AF7860D7
:10148C0007F1140300221A605A609A60DA607B68D4
:10149C001B681D4A934232D11C4B9B691B4A43F07B
:1014AC0008039361194B9B6903F008033B613B698B
:1014BC004FF440737B611223BB6103233B6207F142
:1014CC0014031946124800F0A7FA124B5B687B62B2
:1014DC007B6A43F0E0637B627B6A43F002037B62CE
:1014EC000C4A7B6A5360094BDB69084A43F40013CE
:1014FC00D361064BDB6903F40013FB60FB6800BF90
:10150C002837BD4680BD00BF00540040001002408B
:10151C00000C01400000014080B584B000AF786041
:10152C007B681B68B3F1804F13D10C4BDB690B4A02
:10153C0043F00103D361094BDB6903F00103FB604A
:10154C00FB68002200211C2000F02FFA1C2000F068
:10155C0048FA00BF1037BD4680BD00BF00100240E6
:10156C0080B400AFFEE780B400AFFEE780B400AFFC
:10157C00FEE780B400AFFEE780B400AFFEE780B4B6
:10158C0000AF00BFBD4680BC704780B400AF00BF49
:10159C00BD4680BC704780B400AF00BFBD4680BC68
:1015AC00704780B500AF00F0E9F800BF80BD0000C7
:1015BC0080B500AF024801F01BFD00BF80BD00BF2D
:1015CC006801002080B586B000AF7860144A154BD6
:1015DC00D31A7B617B693B61134B1B68002B02D1D7
:1015EC00114B124A1A60104B1A687B6813443A6903
:1015FC009A4207D202F04CF803460C221A604FF0C4
:10160C00FF3309E0084B1B68FB60074B1A687B68CB
:10161C001344054A1360FB6818461837BD4680BD55
:10162C000050002000040000EC000020C801002045
:10163C0080B400AF00BFBD4680BC704780B483B09F
:10164C0000AF7860074B1B687A6892FBF3F3064A8D
:10165C001360064B00221A6000BF0C37BD4680BCDD
:10166C00704700BF04000020A4000020A800002048
:10167C0080B400AF094B1B68002B0BDD074B1B68BC
:10168C00013B064A1360054B1B68002B02D1044B2F
:10169C0001221A6000BFBD4680BC7047A400002028
:1016AC00A8000020FFF7C4FF0B480C490C4A00238C
:1016BC0002E0D458C4500433C4188C42F9D3094AFC
:1016CC00094C002301E013600432A242FBD301F069
:1016DC00E5FFFFF729FD7047000000208400002083
:1016EC000C39000884000020C4010020FEE7000033
:1016FC0080B500AF084B1B68074A43F0100313601A
:10170C00032000F047F90F2000F008F8FFF782FEE5
:10171C000023184680BD00BF0020024080B582B077
:10172C0000AF7860124B1A68124B1B7819464FF4B5
:10173C007A73B3FBF1F3B2FBF3F3184600F05FF9E5
:10174C000346002B01D001230EE07B680F2B0AD837
:10175C00002279684FF0FF3000F027F9064A7B68C9
:10176C001360002300E0012318460837BD4680BDF6
:10177C00140000201C0000201800002080B400AFD2
:10178C00054B1B781A46054B1B681344034A136020
:10179C0000BFBD4680BC70471C000020B00100207B
:1017AC0080B400AF024B1B681846BD4680BC704726
:1017BC00B001002080B584B000AF7860FFF7F0FF77
:1017CC00B8607B68FB60FB68B3F1FF3F05D00A4B48
:1017DC001B781A46FB681344FB6000BFFFF7E0FF61
:1017EC000246BB68D31AFA689A42F7D800BF00BF0A
:1017FC001037BD4680BD00BF1C00002080B485B0F2
:10180C0000AF78607B6803F00703FB600C4BDB6870
:10181C00BB60BA684FF6FF031340BB60FB681A024B
:10182C00BB68134343F0BF6343F40033BB60044A0B
:10183C00BB68D36000BF1437BD4680BC704700BF87
:10184C0000ED00E080B400AF044BDB681B0A03F032
:10185C0007031846BD4680BC704700BF00ED00E092
:10186C0080B483B000AF0346FB7197F90730002BAF
:10187C000BDBFB7903F01F02064997F907305B0974
:10188C00012000FA02F241F8232000BF0C37BD46BC
:10189C0080BC704700E100E080B483B000AF034629
:1018AC003960FB7197F90730002B0ADB3B68DAB221
:1018BC000C4997F907301201D2B20B4483F800237C
:1018CC000AE03B68DAB20849FB7903F00F03043BEA
:1018DC001201D2B20B441A7600BF0C37BD4680BC45
:1018EC00704700BF00E100E000ED00E080B489B07B
:1018FC0000AFF860B9607A60FB6803F00703FB6126
:10190C00FB69C3F10703042B28BF0423BB61FB69EC
:10191C000433062B02D9FB69033B00E000237B61F7
:10192C004FF0FF32BB6902FA03F3DA43BB681A408B
:10193C007B699A404FF0FF317B6901FA03F3D9437D
:10194C007B680B40134318462437BD4680BC704758
:10195C0080B582B000AF78607B68013BB3F1807FCB
:10196C0001D301230FE00A4A7B68013B53600F212E
:10197C004FF0FF30FFF790FF054B00229A60044BAD
:10198C0007221A60002318460837BD4680BD00BFE9
:10199C0010E000E080B582B000AF78607868FFF7A7
:1019AC002DFF00BF0837BD4680BD80B586B000AFA7
:1019BC000346B9607A60FB7300237B61FFF742FF3B
:1019CC0078617A68B9687869FFF790FF024697F9F1
:1019DC000F3011461846FFF75FFF00BF1837BD46A2
:1019EC0080BD80B582B000AF0346FB7197F907301C
:1019FC001846FFF735FF00BF0837BD4680BD80B5E0
:101A0C0082B000AF78607868FFF7A2FF03461846F3
:101A1C000837BD4680BD000080B48BB000AF786045
:101A2C00396000237B6200233B6269E101227B6AFF
:101A3C0002FA03F3FB613B681B68FA691340BB6154
:101A4C00BA69FB699A4240F058813B685B689A4AD4
:101A5C0093425ED0984A934275D8984A934258D094
:101A6C00964A93426FD8964A934252D0944A9342E4
:101A7C0069D8944A93424CD0924A934263D8924A82
:101A8C00934246D0904A93425DD8122B2AD8122BFF
:101A9C0059D801A252F823F01F1B0008F91A0008AC
:101AAC000B1B00084D1B0008531B0008531B0008A0
:101ABC00531B0008531B0008531B0008531B000842
:101ACC00531B0008531B0008531B0008531B000832
:101ADC00531B0008531B0008531B0008011B000874
:101AEC00151B0008794A934213D02CE03B68DB6845
:101AFC003B6229E03B68DB6804333B6224E03B68D3
:101B0C00DB6808333B621FE03B68DB680C333B62ED
:101B1C001AE03B689B68002B02D104233B6213E064
:101B2C003B689B68012B05D108233B627B68FA69F3
:101B3C001A6109E008233B627B68FA695A6103E089
:101B4C0000233B6200E000BFBB69FF2B01D87B6820
:101B5C0001E07B6804337B61BB69FF2B02D87B6A95
:101B6C009B0002E07B6A083B9B003B617B691A6827
:101B7C000F213B6901FA03F3DB431A40396A3B69D5
:101B8C0001FA03F31A437B691A603B685B6803F044
:101B9C008053002B00F0B1804D4B9B694C4A43F0B5
:101BAC00010393614A4B9B6903F00103BB60BB6863
:101BBC00484A7B6A9B08023352F82330FB607B6AED
:101BCC0003F003039B000F2202FA03F3DB43FA68D2
:101BDC001340FB607B68404A934213D07B683F4ABA
:101BEC0093420DD07B683E4A934207D07B683D4AB6
:101BFC00934201D1032306E0042304E0022302E014
:101C0C00012300E000237A6A02F003029200934061
:101C1C00FA681343FB602F497B6A9B080233FA680E
:101C2C0041F823203B685B6803F48013002B06D03B
:101C3C002D4B9A682C49BB6913438B6006E02A4BE9
:101C4C009A68BB69DB43284913408B603B685B682F
:101C5C0003F40013002B06D0234BDA682249BB692E
:101C6C001343CB6006E0204BDA68BB69DB431E49AB
:101C7C001340CB603B685B6803F40033002B06D049
:101C8C00194B5A681849BB6913434B6006E0164B55
:101C9C005A68BB69DB43144913404B603B685B6873
:101CAC0003F48033002B21D00F4B1A680E49BB690B
:101CBC0013430B6021E000BF000032100000311014
:101CCC000000221000002110000012100000111062
:101CDC00001002400000014000080140000C0140CF
:101CEC000010014000140140000401400B4B1A6825
:101CFC00BB69DB43094913400B607B6A01337B6290
:101D0C003B681A687B6A22FA03F3002B7FF48EAED1
:101D1C0000BF00BF2C37BD4680BC7047000401409B
:101D2C0080B485B000AF78600B467B807B689A6886
:101D3C007B881340002B02D00123FB7301E00023AE
:101D4C00FB73FB7B18461437BD4680BC704780B4D0
:101D5C0083B000AF78600B467B8013467B707B783A
:101D6C00002B03D07A887B681A6103E07B881A0405
:101D7C007B681A6100BF0C37BD4680BC7047000001
:101D8C0080B584B000AF78607B68002B01D1012353
:101D9C002BE17B6893F83D30DBB2002B06D17B68DE
:101DAC00002283F83C207868FFF766FB7B682422CE
:101DBC0083F83D207B681B681A687B681B6822F0DF
:101DCC0001021A607B681B681A687B681B6842F406
:101DDC0000421A607B681B681A687B681B6822F4D7
:101DEC0000421A6001F030F8F8607B685B68814A49
:101DFC00934207D8FB68804A934294BF0123002387
:101E0C00DBB206E0FB687D4A934294BF01230023BA
:101E1C00DBB2002B01D00123E7E0FB68784AA2FB80
:101E2C0003239B0CBB607B681B685B6823F03F0142
:101E3C007B681B68BA680A435A607B681B681B6A1C
:101E4C0023F03F017B685B686A4A934202D8BB6807
:101E5C00013309E0BB684FF4967202FB03F3694A45
:101E6C00A2FB03239B0901337A6812680B431362AC
:101E7C007B681B68DB6923F44F4222F0FF027B680E
:101E8C005B685C498B4219D8FB68591E7B685B68A0
:101E9C005B00B1FBF3F3591C40F6FC730B40002BB9
:101EAC000AD0FB68591E7B685B685B00B1FBF3F3DF
:101EBC000133C3F30B0351E004234FE07B689B68B1
:101ECC00002B11D1FB68581E7B6859680B465B00D0
:101EDC000B44B0FBF3F30133C3F30B03002B0CBF28
:101EEC0001230023DBB212E0FB68581E7B685968A3
:101EFC000B469B000B4499000B44B0FBF3F30133EE
:101F0C00C3F30B03002B0CBF01230023DBB2002B0C
:101F1C0001D0012322E07B689B68002B0ED1FB686B
:101F2C00581E7B6859680B465B000B44B0FBF3F3FF
:101F3C000133C3F30B0343F400430FE0FB68581E5B
:101F4C007B6859680B469B000B4499000B44B0FB13
:101F5C00F3F30133C3F30B0343F44043796809688B
:101F6C001343CB617B681B681B6823F0C0017B6843
:101F7C00DA697B681B6A1A437B681B680A431A6020
:101F8C007B681B689B6823F4034323F0FF037A6888
:101F9C0011697A68D26811437A6812680B439360AE
:101FAC007B681B68DB6823F0FF017B685A697B68E0
:101FBC009B691A437B681B680A43DA607B681B6861
:101FCC001A687B681B6842F001021A607B68002269
:101FDC001A647B68202283F83D207B6800221A63F8
:101FEC007B68002283F83E20002318461037BD463C
:101FFC0080BD00BFA08601007F841E00FF083D004D
:10200C0083DE1B43D34D621080B588B002AFF860FD
:10201C007A601A460B467B8113463B81FFF7C0FB67
:10202C007861FB6893F83D30DBB2202B40F0E08008
:10203C007B690093192301227049F86800F064F958
:10204C000346002B01D00223D3E0FB6893F83C300D
:10205C00012B01D10223CCE0FB68012283F83C2048
:10206C00FB681B681B6803F00103012B07D0FB689E
:10207C001B681A68FB681B6842F001021A60FB6857
:10208C001B681A68FB681B6822F400621A60FB6804
:10209C00212283F83D20FB68102283F83E20FB6848
:1020AC0000221A64FB687A685A62FB683A895A857E
:1020BC00FB685B8D9AB2FB681A85FB68504ADA6242
:1020CC0079897B693A6AF86800F09CF80346002B22
:1020DC0001D001238DE000233B61FB681B685B6929
:1020EC003B61FB681B689B693B613B6966E07A69F5
:1020FC00396AF86800F022FA0346002B0DD0FB6811
:10210C001B6C042B07D1FB681B681A68FB681B68E7
:10211C0042F400721A6001236BE0FB685B6A1A7868
:10212C00FB681B681A61FB685B6A5A1CFB685A6285
:10213C00FB685B8D9BB2013B9AB2FB685A85FB68CE
:10214C001B8D013B9AB2FB681A85FB681B685B69A7
:10215C0003F00403042B1BD1FB681B8D002B17D041
:10216C00FB685B6A1A78FB681B681A61FB685B6A20
:10217C005A1CFB685A62FB685B8D9BB2013B9AB29E
:10218C00FB685A85FB681B8D013B9AB2FB681A856C
:10219C007A69396AF86800F019FA0346002B0DD0F9
:1021AC00FB681B6C042B07D1FB681B681A68FB6867
:1021BC001B6842F400721A6001231AE0FB681B8D45
:1021CC00002B94D1FB681B681A68FB681B6842F4EF
:1021DC0000721A60FB68202283F83D20FB68002205
:1021EC0083F83E20FB68002283F83C20002300E0AB
:1021FC00022318461837BD4680BD00BF02001000F0
:10220C000000FFFF80B588B002AFF8607A603B60D9
:10221C000B467B81FB68DB6A7B617B69082B06D0F4
:10222C007B69012B03D07B6913F5803F08D1FB68D8
:10223C001B681A68FB681B6842F480721A600BE01A
:10224C00FB681B6B122B07D1FB681B681A68FB68B9
:10225C001B6842F480721A603B6800937B68002212
:10226C004FF00111F86800F04FF80346002B0DD029
:10227C00FB681B681B6803F48073B3F5807F03D184
:10228C00FB684FF400721A64032335E0FB681B698A
:10229C00B3F5804F08D17B89DBB21A46FB681B680B
:1022AC0002F0FE021A611BE07B89DB11DBB203F04A
:1022BC000603DBB263F00F03DAB2FB681B681A612A
:1022CC003B687A680E49F86800F098F80346002BD2
:1022DC0001D0012310E07B89DAB2FB681B681A611C
:1022EC003B687A680749F86800F088F80346002BC9
:1022FC0001D0012300E0002318461837BD4680BDED
:10230C00080001000200010080B584B000AFF86045
:10231C00B9603B601346FB7148E03B68B3F1FF3F8B
:10232C0044D0FFF73DFA0246BB69D31A3A689A4289
:10233C0002D33B68002B39D1BB681B0CDBB2012BE1
:10234C000DD1FB681B685B69DA43BB6813409BB219
:10235C00002B0CBF01230023DBB21A460CE0FB68F8
:10236C001B689B69DA43BB6813409BB2002B0CBF04
:10237C0001230023DBB21A46FB799A4216D1FB6883
:10238C0000221A63FB68202283F83D20FB680022A0
:10239C0083F83E20FB681B6C43F02002FB681A6438
:1023AC00FB68002283F83C20012323E0BB681B0C54
:1023BC00DBB2012B0DD1FB681B685B69DA43BB6890
:1023CC0013409BB2002B0CBF01230023DBB21A4637
:1023DC000CE0FB681B689B69DA43BB6813409BB23B
:1023EC00002B0CBF01230023DBB21A46FB799A4267
:1023FC0093D0002318461037BD4680BD80B584B0FD
:10240C0000AFF860B9607A603B6071E0FB681B68F4
:10241C005B6903F48063B3F5806F23D1FB681B68A1
:10242C001A68FB681B6842F400721A60FB681B6830
:10243C006FF480625A61FB6800221A63FB682022E9
:10244C0083F83D20FB68002283F83E20FB681B6C60
:10245C0043F00402FB681A64FB68002283F83C20FA
:10246C00012367E07B68B3F1FF3F41D0FFF798F998
:10247C0002463B68D31A7A689A4202D37B68002BD7
:10248C0036D1BB681B0CDBB2012B0CD1FB681B6873
:10249C005B69DA43BB6813409BB2002B14BF01236A
:1024AC000023DBB20BE0FB681B689B69DA43BB685B
:1024BC0013409BB2002B14BF01230023DBB2002B73
:1024CC0016D0FB6800221A63FB68202283F83D209B
:1024DC00FB68002283F83E20FB681B6C43F0200253
:1024EC00FB681A64FB68002283F83C20012321E07E
:1024FC00BB681B0CDBB2012B0CD1FB681B685B6946
:10250C00DA43BB6813409BB2002B14BF012300239A
:10251C00DBB20BE0FB681B689B69DA43BB681340BA
:10252C009BB2002B14BF01230023DBB2002B7FF4E2
:10253C006DAF002318461037BD4680BD80B584B002
:10254C0000AFF860B9607A6034E0F86800F086F8A3
:10255C000346002B01D0012334E0BB68B3F1FF3FED
:10256C0028D0FFF71DF902467B68D31ABA689A4245
:10257C0002D3BB68002B1DD1FB681B685B6903F0A1
:10258C008003802B16D0FB6800221A63FB68202284
:10259C0083F83D20FB68002283F83E20FB681B6C0F
:1025AC0043F02002FB681A64FB68002283F83C208D
:1025BC00012307E0FB681B685B6903F08003802B39
:1025CC00C3D1002318461037BD4680BD80B584B0FA
:1025DC0000AFF860B9607A6034E0F86800F03EF85B
:1025EC000346002B01D0012334E0BB68B3F1FF3F5D
:1025FC0028D0FFF7D5F802467B68D31ABA689A42FE
:10260C0002D3BB68002B1DD1FB681B685B6903F010
:10261C000403042B16D0FB6800221A63FB682022EB
:10262C0083F83D20FB68002283F83E20FB681B6C7E
:10263C0043F02002FB681A64FB68002283F83C20FC
:10264C00012307E0FB681B685B6903F00403042BA0
:10265C00C3D1002318461037BD4680BD80B483B06B
:10266C0000AF78607B681B685B6903F48063B3F52B
:10267C00806F1BD17B681B686FF480625A617B682A
:10268C0000221A637B68202283F83D207B6800229D
:10269C0083F83E207B681B6C43F004027B681A6451
:1026AC007B68002283F83C20012300E000231846BD
:1026BC000C37BD4680BC704780B586B000AF7860E3
:1026CC007B68002B01D101236CE27B681B6803F053
:1026DC000103002B00F08780924B5B6803F00C0326
:1026EC00042B0CD08F4B5B6803F00C03082B12D11E
:1026FC008C4B5B6803F48033B3F5803F0BD1894B73
:10270C001B6803F40033002B6CD07B685B68002BD8
:10271C0068D1012346E27B685B68B3F5803F06D144
:10272C00804B1B687F4A43F4803313602EE07B6838
:10273C005B68002B0CD17B4B1B687A4A23F48033EB
:10274C001360784B1B68774A23F4802313601DE0D9
:10275C007B685B68B3F5A02F0CD1724B1B68714A78
:10276C0043F4802313606F4B1B686E4A43F4803331
:10277C0013600BE06B4B1B686A4A23F480331360C5
:10278C00684B1B68674A23F4802313607B685B6883
:10279C00002B13D0FFF704F8386108E0FFF700F8BE
:1027AC0002463B69D31A642B01D90323FAE15D4B32
:1027BC001B6803F40033002BF0D014E0FEF7F0FF9D
:1027CC00386108E0FEF7ECFF02463B69D31A642B34
:1027DC0001D90323E6E1534B1B6803F40033002BB0
:1027EC00F0D100E000BF7B681B6803F00203002BF4
:1027FC0063D04C4B5B6803F00C03002B0BD0494BA4
:10280C005B6803F00C03082B1CD1464B5B6803F48C
:10281C008033002B16D1434B1B6803F00203002BB3
:10282C0005D07B681B69012B01D00123BAE13D4B1C
:10283C001B6823F0F8027B685B69DB0039491343A2
:10284C000B603AE07B681B69002B20D0364B0122D1
:10285C001A60FEF7A5FF386108E0FEF7A1FF0246FB
:10286C003B69D31A022B01D903239BE12D4B1B6827
:10287C0003F00203002BF0D02A4B1B6823F0F80264
:10288C007B685B69DB00274913430B6015E0264B23
:10289C0000221A60FEF784FF386108E0FEF780FF23
:1028AC0002463B69D31A022B01D903237AE11D4B53
:1028BC001B6803F00203002BF0D17B681B6803F04C
:1028CC000803002B3AD07B689B69002B19D0174B5F
:1028DC0001221A60FEF764FF386108E0FEF760FF22
:1028EC0002463B69D31A022B01D903235AE10D4B43
:1028FC005B6A03F00203002BF0D0012000F0B8FA61
:10290C001CE00A4B00221A60FEF74AFF38610FE008
:10291C00FEF746FF02463B69D31A022B08D9032364
:10292C0040E100BF001002400000424280044242DD
:10293C009E4B5B6A03F00203002BE9D17B681B689A
:10294C0003F00403002B00F0A6800023FB75974BCB
:10295C00DB6903F08053002B0DD1944BDB69934A58
:10296C0043F08053D361914BDB6903F08053BB6020
:10297C00BB680123FB758E4B1B6803F48073002B23
:10298C0018D18B4B1B688A4A43F480731360FEF793
:10299C0007FF386108E0FEF703FF02463B69D31AD4
:1029AC00642B01D90323FDE0814B1B6803F4807376
:1029BC00002BF0D07B68DB68012B06D17B4B1B6AAC
:1029CC007A4A43F0010313622DE07B68DB68002B2D
:1029DC000CD1764B1B6A754A23F001031362734BBF
:1029EC001B6A724A23F0040313621CE07B68DB68E9
:1029FC00052B0CD16D4B1B6A6C4A43F0040313621C
:102A0C006A4B1B6A694A43F0010313620BE0674B84
:102A1C001B6A664A23F001031362644B1B6A634A08
:102A2C0023F0040313627B68DB68002B15D0FEF7E0
:102A3C00B7FE38610AE0FEF7B3FE02463B69D31AD3
:102A4C0041F28832934201D90323ABE0574B1B6A06
:102A5C0003F00203002BEED014E0FEF7A1FE386168
:102A6C000AE0FEF79DFE02463B69D31A41F288321A
:102A7C00934201D9032395E04C4B1B6A03F00203EC
:102A8C00002BEED1FB7D012B05D1484BDB69474A6E
:102A9C0023F08053D3617B68DB69002B00F08180CD
:102AAC00424B5B6803F00C03082B61D07B68DB693D
:102ABC00022B46D13F4B00221A60FEF771FE3861A3
:102ACC0008E0FEF76DFE02463B69D31A022B01D9D2
:102ADC00032367E0354B1B6803F00073002BF0D128
:102AEC007B681B6AB3F5803F08D1304B5B6823F4DD
:102AFC0000327B689B682D4913434B602B4B5B6802
:102B0C0023F474127B68196A7B685B6A0B43274950
:102B1C0013434B60274B01221A60FEF741FE3861CC
:102B2C0008E0FEF73DFE02463B69D31A022B01D9A1
:102B3C00032337E01D4B1B6803F00073002BF0D010
:102B4C002FE01C4B00221A60FEF72AFE386108E0C9
:102B5C00FEF726FE02463B69D31A022B01D903234A
:102B6C0020E0124B1B6803F00073002BF0D118E02F
:102B7C007B68DB69012B01D1012313E00B4B5B68F4
:102B8C00FB60FB6803F480327B681B6A9A4206D1B7
:102B9C00FB6803F470127B685B6A9A4201D00123D4
:102BAC0000E0002318461837BD4680BD00100240D7
:102BBC00007000406000424280B584B000AF786085
:102BCC0039607B68002B01D10123D0E06A4B1B6874
:102BDC0003F007033A689A4210D9674B1B6823F03D
:102BEC00070265493B6813430B60634B1B6803F09A
:102BFC0007033A689A4201D00123B8E07B681B684E
:102C0C0003F00203002B20D07B681B6803F0040345
:102C1C00002B05D0594B5B68584A43F4E063536072
:102C2C007B681B6803F00803002B05D0534B5B68D3
:102C3C00524A43F460535360504B5B6823F0F002EC
:102C4C007B689B684D4913434B607B681B6803F0A2
:102C5C000103002B40D07B685B68012B07D1474BED
:102C6C001B6803F40033002B15D101237FE07B6834
:102C7C005B68022B07D1414B1B6803F00073002BE0
:102C8C0009D1012373E03D4B1B6803F00203002BB9
:102C9C0001D101236BE0394B5B6823F003027B68A5
:102CAC005B68364913434B60FEF77AFDF8600AE027
:102CBC00FEF776FD0246FB68D31A41F28832934246
:102CCC0001D9032353E02D4B5B6803F00C027B68A6
:102CDC005B689B009A42EBD1274B1B6803F0070300
:102CEC003A689A4210D2244B1B6823F007022249FF
:102CFC003B6813430B60204B1B6803F007033A68D7
:102D0C009A4201D0012332E07B681B6803F0040374
:102D1C00002B08D0194B5B6823F4E0627B68DB68FE
:102D2C00164913434B607B681B6803F00803002BA8
:102D3C0009D0124B5B6823F460527B681B69DB0083
:102D4C000E4913434B6000F021F802460B4B5B68B5
:102D5C001B0903F00F030A49CB5C22FA03F3094A5F
:102D6C001360094B1B681846FEF7D8FC0023184665
:102D7C001037BD4680BD00BF00200240001002404D
:102D8C00D8380008140000201800002080B487B048
:102D9C0000AF0023FB600023BB6000237B6100239A
:102DAC007B6000233B611E4B5B68FB60FB6803F0A0
:102DBC000C03042B02D0082B03D027E0194B3B61EA
:102DCC0027E0FB689B0C03F00F03174AD35C7B6076
:102DDC00FB6803F48033002B10D0114B5B685B0C49
:102DEC0003F00103114AD35CBB607B680D4A02FB04
:102DFC0003F2BB68B2FBF3F37B6104E07B680C4A23
:102E0C0002FB03F37B617B693B6102E0054B3B6199
:102E1C0000BF3B6918461C37BD4680BC704700BFDD
:102E2C000010024000127A00F03800080039000847
:102E3C0000093D0080B400AF024B1B681846BD462C
:102E4C0080BC70471400002080B500AFFFF7F2FF84
:102E5C000246054B5B681B0A03F007030349CB5C76
:102E6C0022FA03F3184680BD00100240E83800082F
:102E7C0080B485B000AF78600A4B1B680A4AA2FB8D
:102E8C0003235B0A7A6802FB03F3FB6000BFFB6859
:102E9C005A1EFA60002BF9D100BF00BF1437BD4693
:102EAC0080BC704714000020D34D621080B582B0F6
:102EBC0000AF78607B68002B01D1012341E07B6877
:102ECC0093F83D30DBB2002B06D17B68002283F8EF
:102EDC003C207868FEF720FB7B68022283F83D20BB
:102EEC007B681A687B6804331946104600F05CFA5C
:102EFC007B68012283F846207B68012283F83E2000
:102F0C007B68012283F83F207B68012283F84020F4
:102F1C007B68012283F841207B68012283F84220E0
:102F2C007B68012283F843207B68012283F84420CC
:102F3C007B68012283F845207B68012283F83D20C1
:102F4C00002318460837BD4680BD000080B485B00C
:102F5C0000AF78607B6893F83D30DBB2012B01D079
:102F6C0001233AE07B68022283F83D207B681B68D2
:102F7C00DA687B681B6842F00102DA607B681B68C8
:102F8C00184A93420ED07B681B68B3F1804F09D06E
:102F9C007B681B68144A934204D07B681B68134AF5
:102FAC00934211D17B681B689B6803F00703FB609D
:102FBC00FB68062B10D07B681B681A687B681B6843
:102FCC0042F001021A6007E07B681B681A687B6894
:102FDC001B6842F001021A60002318461437BD46E4
:102FEC0080BC7047002C01400004004000080040E9
:102FFC0080B584B000AF78607B681B68DB68FB60D1
:10300C007B681B681B69BB60BB6803F00203002B69
:10301C0020D0FB6803F00203002B1BD07B681B68DD
:10302C006FF002021A617B6801221A777B681B68B9
:10303C009B6903F00303002B03D0786800F098F928
:10304C0005E0786800F08BF9786800F09AF97B68F5
:10305C0000221A77BB6803F00403002B20D0FB6816
:10306C0003F00403002B1BD07B681B686FF0040279
:10307C001A617B6802221A777B681B689B6903F4D0
:10308C004073002B03D0786800F072F905E0786883
:10309C0000F065F9786800F074F97B6800221A7703
:1030AC00BB6803F00803002B20D0FB6803F0080377
:1030BC00002B1BD07B681B686FF008021A617B68C1
:1030CC0004221A777B681B68DB6903F00303002B6F
:1030DC0003D0786800F04CF905E0786800F03FF90F
:1030EC00786800F04EF97B6800221A77BB6803F011
:1030FC001003002B20D0FB6803F01003002B1BD017
:10310C007B681B686FF010021A617B6808221A77C3
:10311C007B681B68DB6903F44073002B03D0786871
:10312C0000F026F905E0786800F019F9786800F0ED
:10313C0028F97B6800221A77BB6803F00103002B87
:10314C000CD0FB6803F00103002B07D07B681B68D5
:10315C006FF001021A617868FEF746F9BB6803F05C
:10316C008003002B0CD0FB6803F08003002B07D0EE
:10317C007B681B686FF080021A61786800F07FFA38
:10318C00BB6803F04003002B0CD0FB6803F040033A
:10319C00002B07D07B681B686FF040021A617868BF
:1031AC0000F0F8F8BB6803F02003002B0CD0FB6890
:1031BC0003F02003002B07D07B681B686FF0200204
:1031CC001A61786800F052FA00BF1037BD4680BD16
:1031DC0080B584B000AF786039600023FB737B68E6
:1031EC0093F83C30012B01D10223B4E07B6801221F
:1031FC0083F83C207B68022283F83D207B681B68A7
:10320C009B68BB60BB6823F07703BB60BB6823F48F
:10321C007F43BB607B681B68BA689A603B681B681D
:10322C00B3F5005F3ED0B3F5005F00F28780B3F5D5
:10323C00805F00F08680B3F5805F7FD8702B1AD04A
:10324C00702B7BD8602B50D0602B77D8502B3CD078
:10325C00502B73D8402B58D0402B6FD8302B64D0C8
:10326C00302B6BD8202B60D0202B67D8002B5CD058
:10327C00102B5AD062E07B6818683B6899683B68F1
:10328C005A683B68DB6800F074F97B681B689B68C4
:10329C00BB60BB6843F07703BB607B681B68BA6894
:1032AC009A604FE07B6818683B6899683B685A687D
:1032BC003B68DB6800F05DF97B681B689A687B688B
:1032CC001B6842F480429A603CE07B6818683B685B
:1032DC0059683B68DB681A4600F0D4F87B681B68B9
:1032EC005021184600F02BF92CE07B6818683B68DD
:1032FC0059683B68DB681A4600F0F2F87B681B687B
:10330C006021184600F01BF91CE07B6818683B68CC
:10331C0059683B68DB681A4600F0B4F87B681B6898
:10332C004021184600F00BF90CE07B681A683B68EA
:10333C001B681946104600F002F903E00123FB73E9
:10334C0000E000BF7B68012283F83D207B680022EF
:10335C0083F83C20FB7B18461037BD4680BD80B4FB
:10336C0083B000AF786000BF0C37BD4680BC70479F
:10337C0080B483B000AF786000BF0C37BD4680BC12
:10338C00704780B483B000AF786000BF0C37BD4687
:10339C0080BC704780B483B000AF786000BF0C373E
:1033AC00BD4680BC7047000080B485B000AF78602B
:1033BC0039607B681B68FB607B682F4A93420BD09B
:1033CC007B68B3F1804F07D07B682C4A934203D0C3
:1033DC007B682B4A934208D1FB6823F07003FB6097
:1033EC003B685B68FA681343FB607B68224A934234
:1033FC000BD07B68B3F1804F07D07B681F4A934298
:10340C0003D07B681E4A934208D1FB6823F44073B7
:10341C00FB603B68DB68FA681343FB60FB6823F0D6
:10342C0080023B685B691343FB607B68FA681A6037
:10343C003B689A687B68DA623B681A687B689A62B8
:10344C007B680D4A934203D13B681A697B681A6307
:10345C007B6801225A617B681B6903F00103002B16
:10346C0005D07B681B6923F001027B681A6100BFE1
:10347C001437BD4680BC7047002C0140000400404E
:10348C000008004080B487B000AFF860B9607A6083
:10349C00FB681B6A7B61FB681B6A23F00102FB68FB
:1034AC001A62FB689B693B613B6923F0F0033B614B
:1034BC007B681B013A6913433B617B6923F00A0368
:1034CC007B617A69BB6813437B61FB683A699A61DB
:1034DC00FB687A691A6200BF1C37BD4680BC704716
:1034EC0080B487B000AFF860B9607A60FB681B6A83
:1034FC007B61FB681B6A23F01002FB681A62FB6895
:10350C009B693B613B6923F470433B617B681B0304
:10351C003A6913433B617B6923F0A0037B61BB6871
:10352C001B017A6913437B61FB683A699A61FB68FA
:10353C007A691A6200BF1C37BD4680BC704780B4E4
:10354C0085B000AF786039607B689B68FB60FB6876
:10355C0023F07003FB603A68FB68134343F00703E6
:10356C00FB607B68FA689A6000BF1437BD4680BC6C
:10357C00704780B487B000AFF860B9607A603B6088
:10358C00FB689B687B617B6923F47F437B613B68B1
:10359C001A027B681A43BB6813437A6913437B6135
:1035AC00FB687A699A6000BF1C37BD4680BC7047C7
:1035BC0080B485B000AF786039607B6893F83C309C
:1035CC00012B01D1022346E07B68012283F83C20C9
:1035DC007B68022283F83D207B681B685B68FB607C
:1035EC007B681B689B68BB60FB6823F07003FB6007
:1035FC003B681B68FA681343FB607B681B68FA68BE
:10360C005A607B681B68164A93420ED07B681B6815
:10361C00B3F1804F09D07B681B68124A934204D0E7
:10362C007B681B68104A93420CD1BB6823F0800363
:10363C00BB603B685B68BA681343BB607B681B6804
:10364C00BA689A607B68012283F83D207B6800226F
:10365C0083F83C20002318461437BD4680BC7047C5
:10366C00002C0140000400400008004080B483B0EE
:10367C0000AF786000BF0C37BD4680BC704780B48B
:10368C0083B000AF786000BF0C37BD4680BC70477C
:10369C00014B1868704700BF2000002070B5002651
:1036AC000C4D0D4C641BA410A64209D100F0A2F8DD
:1036BC0000260A4D0A4C641BA410A64205D170BD0D
:1036CC0055F8043B98470136EEE755F8043B98470C
:1036DC000136F2E7043900080439000804390008FF
:1036EC0008390008024B0146186800F00BB800BFFF
:1036FC002000002003460244934200D1704703F897
:10370C00011BF9E7F8B5CD1C25F0030508350C2D88
:10371C0038BF0C25002D064601DBA94203D90C232A
:10372C0033600020F8BD00F057F821490A681446B0
:10373C009CB9204F3B6823B92146304600F03CF839
:10374C0038602946304600F037F8431C23D10C234F
:10375C003046336000F046F8E3E723685B1B17D470
:10376C000B2B03D923601C44256004E06368A24240
:10377C000CBF0B605360304600F034F804F10B00C2
:10378C00231D20F00700C21ACCD01B1AA350C9E786
:10379C0022466468CCE7C41C24F00304A042E3D0A6
:1037AC00211A304600F008F80130DDD1CFE700BF18
:1037BC00F0000020F400002038B50023054D04462D
:1037CC0008462B60FDF7FEFE431C02D12B6803B1AB
:1037DC00236038BDB4010020014800F009B800BFD7
:1037EC00BC010020014800F004B800BFBC0100205F
:1037FC0070477047F8B500BFF8BC08BC9E467047D0
:0C380C00F8B500BFF8BC08BC9E46704731
:1038180046697273743A202020202020202020201E
:10382800202020005365636F6E643A2020202020FA
:103838002020202020202000326E64206D6F6465D7
:103848002020202020202020202020202020202070
:1038580000000000436F756E743A2020202020205D
:1038680020202020202020202020202020000000B0
:10387800337264206D6F6465202020202020202072
:103888002020202020200000347468206D6F64659B
:103898002020202020202020202020202020202020
:1038A8002020202020200000436F756E743A2020CD
:1038B8002020202020202020202020202020202000
:1038C8002020202020000000080020001000000018
:1038D80000000000000000000102030406070809B8
:1038E800000000000102030402030405060708099A
:0C38F8000A0B0C0D0E0F10100102000056
:043904003101000885
:043908000D010008A5
:10390C00030102030A000000050000000200000091
:10391C000300000000127A001000000001000000FB
:10392C002400002000000000000000000000000047
:10393C00000000000000000000000000000000007B
:10394C00000000000000000000000000000000006B
:10395C00000000000000000000000000000000005B
:10396C00000000000000000000000000000000004B
:10397C00000000000000000000000000000000003B
:04398C000000000037
:04000005080016B128
:00000001FF
