:020000040800F2
:100000000028002081190008A9180008AF1800086E
:10001000B5180008BB180008C1180008000000004F
:10002000000000000000000000000000C7180008E9
:10003000D318000800000000DF180008EB180008C3
:10004000C9190008C9190008C9190008C919000808
:10005000C9190008C9190008C9190008C9190008F8
:10006000C9190008C9190008C9190008C9190008E8
:10007000C9190008C9190008C9190008C9190008D8
:10008000C9190008C9190008C9190008C9190008C8
:10009000C9190008C9190008C9190008C9190008B8
:1000A000C9190008C9190008C9190008C9190008A8
:1000B000F9180008C919000800000000C919000853
:1000C000C91900080000000000000000C91900085C
:1000D00000000000C9190008C9190008000000004C
:1000E000C9190008C9190008C91900080000000052
:1000F0000000000000000000000000000000000000
:0C01000000000000000000005FF808F1A3
:10010C0010B5054C237833B9044B13B10448AFF345
:10011C0000800123237010BD20000020000000008F
:10012C00C82F000808B5034B1BB103490348AFF3B4
:10013C00008008BD0000000024000020C82F00082B
:10014C0080B582B002AF1D4B1B78032B31D801A2B6
:10015C0052F823F071010008890100089B01000886
:10016C00AD010008164B1868164B1968164B1A6827
:10017C00164B0093114B00F08DFF1BE0144B1B68CA
:10018C00144A126819460D4801F05CF812E0104B45
:10019C001B68104A12681946084801F0E7F809E094
:1001AC000B4B1B680B4A12681946044801F074F992
:1001BC0000E000BF00BFBD4680BD00BF00000020B6
:1001CC00080000200C000020100000205C00002023
:1001DC00540000205800002080B400AF154B1A7852
:1001EC00154B1B789A4203D1124B01221A701CE05A
:1001FC00104B1A78114B1B789A4203D10D4B0222EB
:10020C001A7012E00B4B1A780D4B1B789A4203D1E3
:10021C00084B03221A7008E0064B1A78094B1B781E
:10022C009A4202D1034B00221A7000BFBD4680BC1B
:10023C00704700BF000000203C000020010000209F
:10024C00020000200300002080B485B000AF78606D
:10025C0039603B680A2B15DD39681F4B83FB012382
:10026C009A10CB17D21A13469B0013445B00CA1A80
:10027C00FA603B68184A82FB03129210DB17D31A00
:10028C00BB601CE03968144B83FB01239A10CB171D
:10029C00D21A13469B0013445B00CA1A002A0AD1D7
:1002AC003B680D4A82FB03129210DB17D31ABB601A
:1002BC000023FB6003E00023BB603B68FB607B68B2
:1002CC001A4607F1080393E8030082E803007868F4
:1002DC001437BD4680BC70476766666680B586B0CD
:1002EC0000AF3A4B1A783A4B1B789A426AD0374B8C
:1002FC001A78384B1B789A421DD1374B00221A6062
:10030C00364B1B680133354A1360344B1B68632B27
:10031C0002DD324B00221A60304B1A6807F11003D1
:10032C0011461846FFF790FF3B692D4A13607B6915
:10033C002C4A136047E0254B1A782B4B1B789A42BA
:10034C001DD1264B00221A60284B1B680133274A0B
:10035C001360264B1B68632B02DD244B00221A60B2
:10036C00224B1A6807F1080311461846FFF76CFF79
:10037C00BB681B4A1360FB681A4A136023E0134BDB
:10038C001A781B4B1B789A421DD1184B00221A600D
:10039C00114B1B680133104A13600F4B1B68632B06
:1003AC0002DD0D4B00221A600B4B1A683B461146BE
:1003BC001846FFF749FF3B68094A13607B68094AF6
:1003CC00136000E000BF1837BD4680BD0000002060
:1003DC003C000020010000205000002048000020BC
:1003EC005400002058000020020000204C00002087
:1003FC000300002080B500AF1E4B1B78022B27D0CA
:10040C00022B34DC002B02D0012B0DD02FE01A4B29
:10041C001B68012B26D1174B01221A70164B002298
:10042C001A60FFF7D9FE1DE0002000F0A7F9034683
:10043C00002B03D10F4B00221A7015E0002000F0A6
:10044C00B7F90346002B0FD00A4B02221A700BE0AF
:10045C00002000F093F90346002B07D1054B002236
:10046C001A7003E000BF02E000BF00E000BF00BF55
:10047C0080BD00BF3D0000205C00002080B500AFB7
:10048C00594B1B78022B6DD0022B00F3AB80002B49
:10049C0002D0012B54D0A5E0544B1B68012B07D183
:1004AC00514B01221A70514B00221A60FFF716FFB4
:1004BC004F4B1B68012B0ED14E4B00221A604E4B3A
:1004CC0000221A604D4B00221A604D4B00221A601C
:1004DC004C4B00221A604C4B1B68012B7DD14A4BB4
:1004EC0000221A60494B1A78494B1B789A4208D162
:1004FC00424B1B68002B04DD404B1B68454A1360C4
:10050C001DE0424B1A78444B1B789A4208D13C4B65
:10051C001B68002B04DD3A4B1B68404A13600EE04D
:10052C003A4B1A783E4B1B789A4256D1354B1B6886
:10053C00002B52DD334B1B683A4A13604DE04CE004
:10054C00012000F01BF90346002B03D1264B00229F
:10055C001A7044E0344B1B68012B40D1224B022211
:10056C001A703CE0304B1B68002B02D11E4B002252
:10057C001A70FFF7B3FE4FF4FA7001F0C7F92A4B6B
:10058C001B68002B23D1214B1A78214B1B789A42E4
:10059C0005D11A4B1B68033B184A136021E01B4B17
:1005AC001A781D4B1B789A4205D1154B1B68033BDF
:1005BC00134A136015E0154B1A78194B1B789A42A5
:1005CC000FD1104B1B68033B0E4A136009E000BFB0
:1005DC00164B1B68002BFBD004E000BF02E000BFF1
:1005EC0000E000BF80BD00BF3E0000206000002086
:1005FC005C0000205400002058000020480000201F
:10060C004C0000205000002064000020000000205E
:10061C000100002008000020020000200C00002037
:10062C0003000020100000206C000020440000207B
:10063C0090B583B000AF0023FB717CE0FA79FB79B5
:10064C004149895C414AD154FB79414A32F8133013
:10065C00FC7919463F4801F09DFC03461A463A4B7B
:10066C001A55FB79384AD25CFB793849CB5C9A42F3
:10067C0005D1FA79FB793449895C374AD154FB7935
:10068C00354AD35C002B38D1FB79002B02D1334B8C
:10069C0001221A60FB79012B02D1314B01221A6025
:1006AC00FB79022B02D12F4B01221A60FB792E4AC7
:1006BC0032F81330092B09D8FB792B4A32F8132066
:1006CC00013291B2284A22F8131031E0FB79274A03
:1006DC000121D154FB79002B02D1254B01221A6048
:1006EC00FB79012B02D1234B01221A60FB79022BDF
:1006FC001ED1214B01221A601AE0FB79002B02D18A
:10070C001B4B00221A60FB79012B02D1194B0022E2
:10071C001A60FB79022B02D1174B00221A60FB796D
:10072C00114A002122F81310FB79104A0021D154F0
:10073C00FB790133FB71FB79022B7FF67FAF00BF96
:10074C0000BF0C37BD4690BD74000020780000201F
:10075C00E02F000800080140880000205C00002009
:10076C006000002064000020800000207C0000203D
:10077C00680000206C0000207000002080B483B062
:10078C0000AF0346FB71FB79022B01D9002307E074
:10079C00FB79064AD35C002B0CBF01230023DBB290
:1007AC0018460C37BD4680BC704700BF880000203F
:1007BC0080B483B000AF0346FB71FB79022B01D9E7
:1007CC00FF2307E0FB79064AD35C012B0CBF012306
:1007DC000023DBB218460C37BD4680BC704700BF07
:1007EC007C00002080B582B000AF78607B68002B65
:1007FC0023D100220121C04801F0E3FB0022022199
:10080C00BD4801F0DEFB00220421BB4801F0D9FBFE
:10081C0000220821B84801F0D4FB00221021B64870
:10082C0001F0CFFB00222021B34801F0CAFB0122CA
:10083C004021B14801F0C5FB5AE17B68012B23D163
:10084C0001220121AC4801F0BCFB00220221AA4884
:10085C0001F0B7FB00220421A74801F0B2FB0122F2
:10086C000821A54801F0ADFB01221021A24801F09E
:10087C00A8FB01222021A04801F0A3FB012240216A
:10088C009D4801F09EFB33E17B68022B23D10022B3
:10089C000121994801F095FB00220221964801F0B4
:1008AC0090FB01220421944801F08BFB00220821CB
:1008BC00914801F086FB002210218F4801F081FB4A
:1008CC00012220218C4801F07CFB002240218A4827
:1008DC0001F077FB0CE17B68032B23D10022012173
:1008EC00854801F06EFB00220221834801F069FB70
:1008FC0000220421804801F064FB002208217E487C
:10090C0001F05FFB012210217B4801F05AFB012210
:10091C002021794801F055FB00224021764801F056
:10092C0050FBE5E07B68042B23D1012201217248A6
:10093C0001F047FB002202216F4801F042FB00222C
:10094C0004216D4801F03DFB012208216A4801F0A9
:10095C0038FB01221021684801F033FB00222021D2
:10096C00654801F02EFB00224021634801F029FB71
:10097C00BEE07B68052B23D1002201215E4801F0EB
:10098C0020FB012202215C4801F01BFB0022042108
:10099C00594801F016FB00220821574801F011FBC1
:1009AC0001221021544801F00CFB00222021524856
:1009BC0001F007FB002240214F4801F002FB97E0B9
:1009CC007B68062B23D1002201214B4801F0F9FA58
:1009DC0001220221484801F0F4FA00220421464881
:1009EC0001F0EFFA00220821434801F0EAFA002254
:1009FC001021414801F0E5FA002220213E4801F087
:100A0C00E0FA002240213C4801F0DBFA70E07B6800
:100A1C00072B23D100220121374801F0D2FA002202
:100A2C000221354801F0CDFA00220421324801F0B0
:100A3C00C8FA01220821304801F0C3FA0122102122
:100A4C002D4801F0BEFA012220212B4801F0B9FA01
:100A5C0001224021284801F0B4FA49E07B68082BB8
:100A6C0023D100220121244801F0ABFA00220221FB
:100A7C00214801F0A6FA002204211F4801F0A1FA36
:100A8C00002208211C4801F09CFA002210211A486F
:100A9C0001F097FA00222021174801F092FA002267
:100AAC004021154801F08DFA22E000220121124864
:100ABC0001F087FA002202210F4801F082FA00228D
:100ACC0004210D4801F07DFA002208210A4801F0AA
:100ADC0078FA01221021084801F073FA0022202133
:100AEC00054801F06EFA00224021034801F069FA32
:100AFC0000BF0837BD4680BD000C014080B582B0F8
:100B0C0000AF78607B68002B2AD100224FF4007173
:100B1C00CB4801F056FA00224FF48061C84801F02E
:100B2C0050FA00224FF40061C54801F04AFA002245
:100B3C004FF48051C24801F044FA00224FF40051A6
:100B4C00BF4801F03EFA00224FF48041BC4801F04E
:100B5C0038FA01224FF40041B94801F032FA9BE116
:100B6C007B68012B2AD101224FF40071B44801F0AB
:100B7C0028FA00224FF48061B14801F022FA0022D9
:100B8C004FF40061AE4801F01CFA01224FF4805181
:100B9C00AB4801F016FA01224FF40051A84801F0BD
:100BAC0010FA01224FF48041A54801F00AFA012203
:100BBC004FF40041A24801F004FA6DE17B68022B6E
:100BCC002AD100224FF400719D4801F0FAF900225D
:100BDC004FF480619A4801F0F4F901224FF400615E
:100BEC00974801F0EEF900224FF48051944801F03F
:100BFC00E8F900224FF40051914801F0E2F901228A
:100C0C004FF480418E4801F0DCF900224FF4004192
:100C1C008B4801F0D6F93FE17B68032B2AD10022E7
:100C2C004FF40071864801F0CCF900224FF480613A
:100C3C00834801F0C6F900224FF40061804801F0AE
:100C4C00C0F900224FF480517D4801F0BAF901221D
:100C5C004FF400517A4801F0B4F901224FF480416D
:100C6C00774801F0AEF900224FF40041744801F0CE
:100C7C00A8F911E17B68042B2AD101224FF40071F1
:100C8C006F4801F09EF900224FF480616C4801F02E
:100C9C0098F900224FF40061694801F092F90122A1
:100CAC004FF48051664801F08CF901224FF4005149
:100CBC00634801F086F900224FF48041604801F04E
:100CCC0080F900224FF400415D4801F07AF9E3E02D
:100CDC007B68052B2AD100224FF40071584801F093
:100CEC0070F901224FF48061554801F06AF9002235
:100CFC004FF40061524801F064F900224FF4805126
:100D0C004F4801F05EF901224FF400514C4801F0BC
:100D1C0058F900224FF48041494801F052F9002261
:100D2C004FF40041464801F04CF9B5E07B68062BC6
:100D3C002AD100224FF40071414801F042F90122FE
:100D4C004FF480613E4801F03CF900224FF4006101
:100D5C003B4801F036F900224FF48051384801F03D
:100D6C0030F900224FF40051354801F02AF90022E5
:100D7C004FF48041324801F024F900224FF4004135
:100D8C002F4801F01EF987E07B68072B2AD100223F
:100D9C004FF400712A4801F014F900224FF48061DD
:100DAC00274801F00EF900224FF40061244801F0AD
:100DBC0008F901224FF48051214801F002F9012277
:100DCC004FF400511E4801F0FCF801224FF4804111
:100DDC001B4801F0F6F801224FF40041184801F0CD
:100DEC00F0F859E07B68082B2CD100224FF40071ED
:100DFC00134801F0E6F800224FF48061104801F02E
:100E0C00E0F800224FF400610D4801F0DAF80022FE
:100E1C004FF480510A4801F0D4F800224FF40051ED
:100E2C00074801F0CEF800224FF48041044801F04D
:100E3C00C8F800224FF40041014801F0C2F82BE041
:100E4C00000C014000224FF40071154801F0B9F874
:100E5C0000224FF48061124801F0B3F800224FF4E5
:100E6C0000610F4801F0ADF800224FF480510C489E
:100E7C0001F0A7F801224FF40051094801F0A1F844
:100E8C0000224FF48041064801F09BF800224FF4F9
:100E9C000041034801F095F800BF0837BD4680BDFE
:100EAC00000C014080B485B000AF786039603B68BD
:100EBC000A2B15DD39681F4B83FB01239A10CB17C6
:100ECC00D21A13469B0013445B00CA1AFA603B68A3
:100EDC00184A82FB03129210DB17D31ABB601CE07A
:100EEC003968144B83FB01239A10CB17D21A134683
:100EFC009B0013445B00CA1A002A0AD13B680D4AB6
:100F0C0082FB03129210DB17D31ABB600023FB6029
:100F1C0003E00023BB603B68FB607B681A4607F16B
:100F2C00080393E8030082E8030078681437BD4691
:100F3C0080BC70476766666680B58AB000AFF860A3
:100F4C00B9607A603B6007F11C03F9681846FFF73B
:100F5C00A9FF07F11403B9681846FFF7A3FF002394
:100F6C007B6257E07B6A002B22D1FB691846FFF7A6
:100F7C0039FC7B691846FFF7C1FD00228021294806
:100F8C0001F01FF801224FF48071264801F019F886
:100F9C0000224FF40071234801F013F801224FF4A2
:100FAC008061204801F00DF87B6A01337B6224E0FC
:100FBC007B6A012B21D13B6A1846FFF713FCBB69F6
:100FCC001846FFF79BFD01228021164800F0F9FF1F
:100FDC0000224FF48071134800F0F3FF01224FF40C
:100FEC000071104800F0EDFF00224FF480610D48B5
:100FFC0000F0E7FF7B6A01337B623B681B68012BC7
:10100C000CD04FF4FA7000F081FC00BF064B1B684B
:10101C00002BFBD07B6A022BA4D100E000BF283749
:10102C00BD4680BD000801404400002080B586B05C
:10103C0000AFF860B9607A603B6000237B61FB68AD
:10104C001A68BB681B689A4203DDBB681B687B612E
:10105C0018E0FB681B687B6114E0FB681868BB68D0
:10106C0019683B687A68FFF767FF7B69013B7B6116
:10107C00BB681B685A1EBB681A60FB681B685A1E4B
:10108C00FB681A607B69002BE7D100BF00BF1837E3
:10109C00BD4680BD80B584B000AFF860B9607A60A1
:1010AC003B60604AFB6813605F4ABB6813605F4A31
:1010BC007B6813605E4AFB6813605E4ABB68136012
:1010CC005D4A7B681360002202215C4800F079FFC6
:1010DC0001220421594800F074FF012208215748CD
:1010EC0000F06FFF01221021544800F06AFF01222A
:1010FC002021524800F065FF002240214F4800F0AB
:10110C0060FFBB691B68012B00F08280BB693A68E9
:10111C0046494448FFF78AFF00220221474800F065
:10112C0050FF01220421454800F04BFF0122082109
:10113C00424800F046FF01221021404800F041FFD8
:10114C00002220213D4800F03CFF012240213B4879
:10115C0000F037FFBB691B68012B5BD0BB693A6899
:10116C0031493048FFF762FF01220221334800F079
:10117C0028FF01220421314800F023FF002208211E
:10118C002E4800F01EFF002210212C4800F019FF01
:10119C0001222021294800F014FF01224021274878
:1011AC0000F00FFFBB691B68012B35D0BB693A6897
:1011BC001F492148FFF73AFF012202211F4800F086
:1011CC0000FF002204211D4800F0FBFE0122082133
:1011DC001A4800F0F6FE00221021184800F0F1FE2B
:1011EC0001222021154800F0ECFE01224021134879
:1011FC0000F0E7FEBB691B68012B0FD0BB693A6896
:10120C000B490C48FFF712FF0D4B01221A6006E048
:10121C0000BF04E000BF02E000BF00E000BF1037D9
:10122C00BD4680BD940000208C0000209C00002056
:10123C009800002090000020A00000200008014031
:10124C004400002080B586B000AFF860B9607A60C9
:10125C0000237B6101220421414800F0B2FE0122EF
:10126C0008213F4800F0ADFE012220213C4800F04F
:10127C00A8FE012240213A4800F0A3FE67E07B69FA
:10128C00002B2AD17868FFF7ADFA0020FFF736FC67
:10129C0000220221324800F094FE00221021304836
:1012AC0000F08FFE00224FF400712D4800F089FEF3
:1012BC0001224FF480612A4800F083FE0022802135
:1012CC00274800F07EFE01224FF48071244800F084
:1012DC0078FE7B6901337B612CE07B69012B29D182
:1012EC007868FFF77FFA0220FFF708FC0122022141
:1012FC001B4800F066FE01221021194800F061FE27
:10130C0001224FF40071164800F05BFE00224FF4EE
:10131C008061134800F055FE01228021104800F036
:10132C0050FE00224FF480710D4800F04AFE7B699C
:10133C0001337B610B4B1B68012B0CD04FF4FA7003
:10134C0000F0E4FA00BF084B1B68002BFBD07B6954
:10135C00022B94D100E000BF1837BD4680BD00BF02
:10136C0000080140600000204400002080B586B0D9
:10137C0000AFF860B9607A6000237B610122022122
:10138C00424800F01EFE01220821404800F019FEE0
:10139C00012210213D4800F014FE012240213B485F
:1013AC0000F00FFE0020FFF71DFA67E07B69002BB1
:1013BC002AD1B868FFF716FA0020FFF79FFB00222E
:1013CC000421324800F0FDFD002220212F4800F0BE
:1013DC00F8FD00224FF400712C4800F0F2FD0122C0
:1013EC004FF48061294800F0ECFD00228021274851
:1013FC0000F0E7FD01224FF48071244800F0E1FD7C
:10140C007B6901337B612CE07B69012B29D17868E6
:10141C00FFF7E8F90320FFF771FB012204211B48B9
:10142C0000F0CFFD01222021184800F0CAFD012256
:10143C004FF40071154800F0C4FD00224FF4806198
:10144C00124800F0BEFD01228021104800F0B9FDC9
:10145C0000224FF480710D4800F0B3FD7B6901331D
:10146C007B610B4B1B68012B0CD04FF4FA7000F016
:10147C004DFA00BF074B1B68002BFBD07B69022B7E
:10148C0094D100E000BF1837BD4680BD0008014074
:10149C00600000204400002080B586B000AFF860EA
:1014AC00B9607A6000237B6101220421414800F07D
:1014BC0088FD012202213F4800F083FD01222021FA
:1014CC003C4800F07EFD012210213A4800F079FDE5
:1014DC0067E07B69002B2AD1B868FFF783F90020FD
:1014EC00FFF70CFB00220821324800F06AFD0022B5
:1014FC004021304800F065FD00224FF400712D486A
:10150C0000F05FFD01224FF480612A4800F059FD84
:10151C0000228021274800F054FD01224FF48071F5
:10152C00244800F04EFD7B6901337B612CE07B6924
:10153C00012B29D17868FFF755F90420FFF7DEFA63
:10154C00012208211B4800F03CFD012240211948D2
:10155C0000F037FD01224FF40071164800F031FD08
:10156C0000224FF48061134800F02BFD01228021F2
:10157C00104800F026FD00224FF480710D4800F059
:10158C0020FD7B6901337B610B4B1B68012B0CD05D
:10159C004FF4FA7000F0BAF900BF084B1B68002B2F
:1015AC00FBD07B69022B94D100E000BF1837BD46FD
:1015BC0080BD00BF000801406000002044000020F6
:1015CC0080B500AF00F0FCF900F010F800F096F8D0
:1015DC0000F048F8044801F039F9FEF7B1FDFEF7C8
:1015EC0009FFFEF74BFFF8E7A400002080B590B090
:1015FC0000AF07F1180328220021184601F0D6FC91
:10160C003B1D00221A605A609A60DA601A6102234C
:10161C00BB610123BB621023FB6200237B6307F1D8
:10162C001803184600F0E6FC0346002B01D000F02E
:10163C00DAF80F237B600023BB600023FB600023E0
:10164C003B6100237B613B1D0021184600F052FFDB
:10165C000346002B01D000F0C6F800BF4037BD4652
:10166C0080BD000080B586B000AF07F108030022F2
:10167C001A605A609A60DA603B4600221A605A601F
:10168C001D4B4FF080421A601B4B41F63F725A6063
:10169C00194B00229A60184B0922DA60164B002273
:1016AC001A61154B00229A61134801F07FF803462A
:1016BC00002B01D000F097F84FF48053BB6007F17A
:1016CC00080319460C4801F0FDF90346002B01D024
:1016DC0000F089F800233B6000237B603B461946F1
:1016EC00054801F0D5FB0346002B01D000F07BF838
:1016FC0000BF1837BD4680BDA400002080B586B061
:10170C0000AF07F1080300221A605A609A60DA6091
:10171C00294B9B69284A43F004039361264B9B6930
:10172C0003F004037B607B68234B9B69224A43F0E4
:10173C0008039361204B9B6903F008033B603B68F3
:10174C00002244F2FF711D4800F03BFC00224FF6D2
:10175C00FF611B4800F035FC44F2FF73BB600123B2
:10176C00FB6000233B6102237B6107F108031946F0
:10177C00124800F095FA4FF6FF63BB600123FB6043
:10178C0000233B6102237B6107F1080319460C48D7
:10179C0000F086FA4FF46053BB600023FB6001231A
:1017AC003B6107F108031946044800F079FA00BFC1
:1017BC001837BD4680BD00BF001002400008014034
:1017CC00000C014080B582B000AF786000F0B8F832
:1017DC007B681B68B3F1804F01D1FEF729FF00BF76
:1017EC000837BD4680BD80B400AF72B600BFFEE7BF
:1017FC0080B485B000AF154B9B69144A43F00103CC
:10180C009361124B9B6903F00103BB60BB680F4BE8
:10181C00DB690E4A43F08053D3610C4BDB6903F058
:10182C0080537B607B680A4B5B68FB60FB6823F032
:10183C00E063FB60FB6843F08063FB60044AFB6879
:10184C00536000BF1437BD4680BC70470010024087
:10185C000000014080B584B000AF78607B681B68E5
:10186C00B3F1804F13D10C4BDB690B4A43F00103EE
:10187C00D361094BDB6903F00103FB60FB680022B9
:10188C0000211C2000F0D5F91C2000F0EEF900BF5F
:10189C001037BD4680BD00BF0010024080B400AFC1
:1018AC00FEE780B400AFFEE780B400AFFEE780B483
:1018BC0000AFFEE780B400AFFEE780B400AF00BF1E
:1018CC00BD4680BC704780B400AF00BFBD4680BC35
:1018DC00704780B400AF00BFBD4680BC704780B578
:1018EC0000AF00F0B3F800BF80BD000080B500AFC2
:1018FC00024800F0F7FF00BF80BD00BFA40000202D
:10190C0080B400AF00BFBD4680BC704780B483B0CC
:10191C0000AF7860074B1B687A6892FBF3F3064ABA
:10192C001360064B00221A6000BF0C37BD4680BC0A
:10193C00704700BF0400002040000020440000203D
:10194C0080B400AF094B1B68002B0BDD074B1B68E9
:10195C00013B064A1360054B1B68002B02D1044B5C
:10196C0001221A6000BFBD4680BC704740000020B9
:10197C0044000020FFF7C4FF0B480C490C4A00231D
:10198C0002E0D458C4500433C4188C42F9D3094A29
:10199C00094C002301E013600432A242FBD301F096
:1019AC00E1FAFFF70DFE7047000000202000002038
:1019BC001430000820000020F0000020FEE700009A
:1019CC0080B500AF084B1B68074A43F01003136047
:1019DC00032000F023F90F2000F008F8FFF708FFB0
:1019EC000023184680BD00BF0020024080B582B0A5
:1019FC0000AF7860124B1A68124B1B7819464FF4E3
:101A0C007A73B3FBF1F3B2FBF3F3184600F03BF936
:101A1C000346002B01D001230EE07B680F2B0AD864
:101A2C00002279684FF0FF3000F003F9064A7B681A
:101A3C001360002300E0012318460837BD4680BD23
:101A4C00140000201C0000201800002080B400AFFF
:101A5C00054B1B781A46054B1B681344034A13604D
:101A6C0000BFBD4680BC70471C000020EC0000206D
:101A7C0080B400AF024B1B681846BD4680BC704753
:101A8C00EC00002080B485B000AF78607B6803F078
:101A9C000703FB600C4BDB68BB60BA684FF6FF03B7
:101AAC001340BB60FB681A02BB68134343F0BF636F
:101ABC0043F40033BB60044ABB68D36000BF1437E7
:101ACC00BD4680BC704700BF00ED00E080B400AFA5
:101ADC00044BDB681B0A03F007031846BD4680BCA9
:101AEC00704700BF00ED00E080B483B000AF034648
:101AFC00FB7197F90730002B0BDBFB7903F01F020E
:101B0C00064997F907305B09012000FA02F241F807
:101B1C00232000BF0C37BD4680BC704700E100E0BD
:101B2C0080B483B000AF03463960FB7197F907307E
:101B3C00002B0ADB3B68DAB20C4997F9073012012B
:101B4C00D2B20B4483F800230AE03B68DAB20849AE
:101B5C00FB7903F00F03043B1201D2B20B441A764B
:101B6C0000BF0C37BD4680BC704700BF00E100E0F1
:101B7C0000ED00E080B489B000AFF860B9607A6025
:101B8C00FB6803F00703FB61FB69C3F10703042B3C
:101B9C0028BF0423BB61FB690433062B02D9FB6904
:101BAC00033B00E000237B614FF0FF32BB6902FA7C
:101BBC0003F3DA43BB681A407B699A404FF0FF315C
:101BCC007B6901FA03F3D9437B680B401343184636
:101BDC002437BD4680BC704780B582B000AF7860BA
:101BEC007B68013BB3F1807F01D301230FE00A4AEC
:101BFC007B68013B53600F214FF0FF30FFF790FFE4
:101C0C00054B00229A60044B07221A6000231846E9
:101C1C000837BD4680BD00BF10E000E080B582B043
:101C2C0000AF78607868FFF72DFF00BF0837BD461E
:101C3C0080BD80B586B000AF0346B9607A60FB7397
:101C4C0000237B61FFF742FF78617A68B968786995
:101C5C00FFF790FF024697F90F3011461846FFF731
:101C6C005FFF00BF1837BD4680BD80B582B000AFA6
:101C7C000346FB7197F907301846FFF735FF00BF95
:101C8C000837BD4680BD80B582B000AF78607868FB
:101C9C00FFF7A2FF034618460837BD4680BD00007B
:101CAC0080B48BB000AF7860396000237B62002376
:101CBC003B6248E101227B6A02FA03F3FB613B6859
:101CCC001B68FA691340BB61BA69FB699A4240F020
:101CDC0037813B685B68A34A93425ED0A14A93422A
:101CEC0075D8A14A934258D09F4A93426FD89F4AC5
:101CFC00934252D09D4A934269D89D4A93424CD00C
:101D0C009B4A934263D89B4A934246D0994A93424A
:101D1C005DD8122B2AD8122B59D801A252F823F0D5
:101D2C00A71D0008811D0008931D0008D51D000883
:101D3C00DB1D0008DB1D0008DB1D0008DB1D000897
:101D4C00DB1D0008DB1D0008DB1D0008DB1D000887
:101D5C00DB1D0008DB1D0008DB1D0008DB1D000877
:101D6C00DB1D0008891D00089D1D0008824A934256
:101D7C0013D02CE03B68DB683B6229E03B68DB68F6
:101D8C0004333B6224E03B68DB6808333B621FE0B2
:101D9C003B68DB680C333B621AE03B689B68002BAA
:101DAC0002D104233B6213E03B689B68012B05D1F5
:101DBC0008233B627B68FA691A6109E008233B62DD
:101DCC007B68FA695A6103E000233B6200E000BFC4
:101DDC00BB69FF2B01D87B6801E07B6804337B6116
:101DEC00BB69FF2B02D87B6A9B0002E07B6A083B35
:101DFC009B003B617B691A680F213B6901FA03F375
:101E0C00DB431A40396A3B6901FA03F31A437B69D5
:101E1C001A603B685B6803F08053002B00F09080E5
:101E2C00564B9B69554A43F001039361534B9B6995
:101E3C0003F00103BB60BB68514A7B6A9B08023309
:101E4C0052F82330FB607B6A03F003039B000F22E4
:101E5C0002FA03F3DB43FA681340FB607B68494AE0
:101E6C0093420DD07B68484A934207D07B68474A1F
:101E7C00934201D1022304E0032302E0012300E09A
:101E8C0000237A6A02F0030292009340FA6813432B
:101E9C00FB603B497B6A9B080233FA6841F82320BC
:101EAC003B685B6803F48013002B06D0384B9A68B0
:101EBC003749BB6913438B6006E0354B9A68BB69A5
:101ECC00DB43334913408B603B685B6803F40013BE
:101EDC00002B06D02E4BDA682D49BB691343CB601F
:101EEC0006E02B4BDA68BB69DB4329491340CB6016
:101EFC003B685B6803F40033002B06D0244B5A6814
:101F0C002349BB6913434B6006E0214B5A68BB69FC
:101F1C00DB431F4913404B603B685B6803F4803321
:101F2C00002B06D01A4B1A681949BB6913430B6076
:101F3C0006E0174B1A68BB69DB43154913400B606D
:101F4C007B6A01337B623B681A687B6A22FA03F373
:101F5C00002B7FF4AFAE00BF00BF2C37BD4680BC5A
:101F6C00704700BF0000321000003110000022103A
:101F7C00000021100000121000001110001002408F
:101F8C000000014000080140000C0140001001401D
:101F9C000004014080B485B000AF78600B467B80B4
:101FAC007B689A687B881340002B02D00123FB735B
:101FBC0001E00023FB73FB7B18461437BD4680BC45
:101FCC00704780B483B000AF78600B467B801346BB
:101FDC007B707B78002B03D07A887B681A6103E0D6
:101FEC007B881A047B681A6100BF0C37BD4680BC25
:101FFC007047000080B586B000AF78607B68002B1E
:10200C0001D101236CE27B681B6803F00103002BF8
:10201C0000F08780924B5B6803F00C03042B0CD010
:10202C008F4B5B6803F00C03082B12D18C4B5B6855
:10203C0003F48033B3F5803F0BD1894B1B6803F459
:10204C000033002B6CD07B685B68002B68D10123BC
:10205C0046E27B685B68B3F5803F06D1804B1B681A
:10206C007F4A43F4803313602EE07B685B68002B5F
:10207C000CD17B4B1B687A4A23F480331360784B6A
:10208C001B68774A23F4802313601DE07B685B6830
:10209C00B3F5A02F0CD1724B1B68714A43F480230B
:1020AC0013606F4B1B686E4A43F4803313600BE074
:1020BC006B4B1B686A4A23F480331360684B1B68B4
:1020CC00674A23F4802313607B685B68002B13D072
:1020DC00FFF7CEFC386108E0FFF7CAFC02463B690B
:1020EC00D31A642B01D90323FAE15D4B1B6803F46B
:1020FC000033002BF0D014E0FFF7BAFC386108E095
:10210C00FFF7B6FC02463B69D31A642B01D90323B3
:10211C00E6E1534B1B6803F40033002BF0D100E0D5
:10212C0000BF7B681B6803F00203002B63D04C4B91
:10213C005B6803F00C03002B0BD0494B5B6803F07E
:10214C000C03082B1CD1464B5B6803F48033002B2B
:10215C0016D1434B1B6803F00203002B05D07B68A0
:10216C001B69012B01D00123BAE13D4B1B6823F005
:10217C00F8027B685B69DB00394913430B603AE07A
:10218C007B681B69002B20D0364B01221A60FFF7AD
:10219C006FFC386108E0FFF76BFC02463B69D31A11
:1021AC00022B01D903239BE12D4B1B6803F0020387
:1021BC00002BF0D02A4B1B6823F0F8027B685B697C
:1021CC00DB00274913430B6015E0264B00221A60F5
:1021DC00FFF74EFC386108E0FFF74AFC02463B690A
:1021EC00D31A022B01D903237AE11D4B1B6803F090
:1021FC000203002BF0D17B681B6803F00803002B53
:10220C003AD07B689B69002B19D0174B01221A60BE
:10221C00FFF72EFC386108E0FFF72AFC02463B6909
:10222C00D31A022B01D903235AE10D4B5B6A03F03D
:10223C000203002BF0D0012000F09AFA1CE00A4BAC
:10224C0000221A60FFF714FC38610FE0FFF710FC56
:10225C0002463B69D31A022B08D9032340E100BF85
:10226C000010024000004242800442429E4B5B6AD6
:10227C0003F00203002BE9D17B681B6803F0040315
:10228C00002B00F0A6800023FB75974BDB6903F055
:10229C008053002B0DD1944BDB69934A43F0805350
:1022AC00D361914BDB6903F08053BB60BB680123A6
:1022BC00FB758E4B1B6803F48073002B18D18B4B72
:1022CC001B688A4A43F480731360FFF7D1FB3861B3
:1022DC0008E0FFF7CDFB02463B69D31A642B01D90A
:1022EC000323FDE0814B1B6803F48073002BF0D0BB
:1022FC007B68DB68012B06D17B4B1B6A7A4A43F067
:10230C00010313622DE07B68DB68002B0CD1764B4C
:10231C001B6A754A23F001031362734B1B6A724AE2
:10232C0023F0040313621CE07B68DB68052B0CD1E3
:10233C006D4B1B6A6C4A43F0040313626A4B1B6AB5
:10234C00694A43F0010313620BE0674B1B6A664A50
:10235C0023F001031362644B1B6A634A23F00403EA
:10236C0013627B68DB68002B15D0FFF781FB3861AB
:10237C000AE0FFF77DFB02463B69D31A41F2883233
:10238C00934201D90323ABE0574B1B6A03F00203C2
:10239C00002BEED014E0FFF76BFB38610AE0FFF77F
:1023AC0067FB02463B69D31A41F28832934201D94A
:1023BC00032395E04C4B1B6A03F00203002BEED178
:1023CC00FB7D012B05D1484BDB69474A23F0805339
:1023DC00D3617B68DB69002B00F08180424B5B682A
:1023EC0003F00C03082B61D07B68DB69022B46D110
:1023FC003F4B00221A60FFF73BFB386108E0FFF708
:10240C0037FB02463B69D31A022B01D9032367E041
:10241C00354B1B6803F00073002BF0D17B681B6AF3
:10242C00B3F5803F08D1304B5B6823F400327B68F6
:10243C009B682D4913434B602B4B5B6823F4741240
:10244C007B68196A7B685B6A0B43274913434B60B3
:10245C00274B01221A60FFF70BFB386108E0FFF7EE
:10246C0007FB02463B69D31A022B01D9032337E041
:10247C001D4B1B6803F00073002BF0D02FE01C4B9E
:10248C0000221A60FFF7F4FA386108E0FFF7F0FA5F
:10249C0002463B69D31A022B01D9032320E0124BCD
:1024AC001B6803F00073002BF0D118E07B68DB692C
:1024BC00012B01D1012313E00B4B5B68FB60FB6824
:1024CC0003F480327B681B6A9A4206D1FB6803F4E2
:1024DC0070127B685B6A9A4201D0012300E00023F2
:1024EC0018461837BD4680BD0010024000700040F1
:1024FC006000424280B584B000AF786039607B6880
:10250C00002B01D10123D0E06A4B1B6803F00703B9
:10251C003A689A4210D9674B1B6823F00702654949
:10252C003B6813430B60634B1B6803F007033A686B
:10253C009A4201D00123B8E07B681B6803F00203C8
:10254C00002B20D07B681B6803F00403002B05D004
:10255C00594B5B68584A43F4E06353607B681B68D3
:10256C0003F00803002B05D0534B5B68524A43F42D
:10257C0060535360504B5B6823F0F0027B689B68A0
:10258C004D4913434B607B681B6803F00103002B20
:10259C0040D07B685B68012B07D1474B1B6803F469
:1025AC000033002B15D101237FE07B685B68022B85
:1025BC0007D1414B1B6803F00073002B09D1012399
:1025CC0073E03D4B1B6803F00203002B01D1012388
:1025DC006BE0394B5B6823F003027B685B68364920
:1025EC0013434B60FFF744FAF8600AE0FFF740FA38
:1025FC000246FB68D31A41F28832934201D9032375
:10260C0053E02D4B5B6803F00C027B685B689B000E
:10261C009A42EBD1274B1B6803F007033A689A42A6
:10262C0010D2244B1B6823F0070222493B6813434A
:10263C000B60204B1B6803F007033A689A4201D0E9
:10264C00012332E07B681B6803F00403002B08D0E5
:10265C00194B5B6823F4E0627B68DB681649134313
:10266C004B607B681B6803F00803002B09D0124BEE
:10267C005B6823F460527B681B69DB000E491343D3
:10268C004B6000F021F802460B4B5B681B0903F012
:10269C000F030A49CB5C22FA03F3094A1360094B76
:1026AC001B681846FFF7A2F9002318461037BD46E1
:1026BC0080BD00BF0020024000100240E82F00083F
:1026CC00140000201800002080B487B000AF002355
:1026DC00FB600023BB6000237B6100237B60002335
:1026EC003B611E4B5B68FB60FB6803F00C03042B27
:1026FC0002D0082B03D027E0194B3B6127E0FB6885
:10270C009B0C03F00F03174AD35C7B60FB6803F44C
:10271C008033002B10D0114B5B685B0C03F0010372
:10272C00114AD35CBB607B680D4A02FB03F2BB68A9
:10273C00B2FBF3F37B6104E07B680C4A02FB03F30E
:10274C007B617B693B6102E0054B3B6100BF3B69F0
:10275C0018461C37BD4680BC704700BF00100240B5
:10276C0000127A00F82F00080830000800093D001C
:10277C0080B485B000AF78600A4B1B680A4AA2FB94
:10278C0003235B0A7A6802FB03F3FB6000BFFB6860
:10279C005A1EFA60002BF9D100BF00BF1437BD469A
:1027AC0080BC704714000020D34D621080B582B0FD
:1027BC0000AF78607B68002B01D1012341E07B687E
:1027CC0093F83D30DBB2002B06D17B68002283F8F6
:1027DC003C207868FFF73EF87B68022283F83D20A6
:1027EC007B681A687B6804331946104600F056FA69
:1027FC007B68012283F846207B68012283F83E2007
:10280C007B68012283F83F207B68012283F84020FB
:10281C007B68012283F841207B68012283F84220E7
:10282C007B68012283F843207B68012283F84420D3
:10283C007B68012283F845207B68012283F83D20C8
:10284C00002318460837BD4680BD000080B485B013
:10285C0000AF78607B6893F83D30DBB2012B01D080
:10286C00012335E07B68022283F83D207B681B68DE
:10287C00DA687B681B6842F00102DA607B681B68CF
:10288C00164A934209D07B681B68B3F1804F04D081
:10289C007B681B68124A934211D17B681B689B684A
:1028AC0003F00703FB60FB68062B10D07B681B68EA
:1028BC001A687B681B6842F001021A6007E07B68AB
:1028CC001B681A687B681B6842F001021A600023BF
:1028DC0018461437BD4680BC704700BF002C014021
:1028EC000004004080B584B000AF78607B681B6842
:1028FC00DB68FB607B681B681B69BB60BB6803F013
:10290C000203002B20D0FB6803F00203002B1BD02A
:10291C007B681B686FF002021A617B6801221A77D0
:10292C007B681B689B6903F00303002B03D078685A
:10293C0000F098F905E0786800F08BF9786800F001
:10294C009AF97B6800221A77BB6803F00403002B0A
:10295C0020D0FB6803F00403002B1BD07B681B68A2
:10296C006FF004021A617B6802221A777B681B687D
:10297C009B6903F44073002B03D0786800F072F964
:10298C0005E0786800F065F9786800F074F97B6808
:10299C0000221A77BB6803F00803002B20D0FB68D9
:1029AC0003F00803002B1BD07B681B686FF0080238
:1029BC001A617B6804221A777B681B68DB6903F059
:1029CC000303002B03D0786800F04CF905E078681D
:1029DC0000F03FF9786800F04EF97B6800221A7716
:1029EC00BB6803F01003002B20D0FB6803F010032E
:1029FC00002B1BD07B681B686FF010021A617B6880
:102A0C0008221A777B681B68DB6903F44073002B80
:102A1C0003D0786800F026F905E0786800F019F921
:102A2C00786800F028F97B6800221A77BB6803F0FD
:102A3C000103002B0CD0FB6803F00103002B07D023
:102A4C007B681B686FF001021A617868FEF7BAFEAA
:102A5C00BB6803F08003002B0CD0FB6803F08003F1
:102A6C00002B07D07B681B686FF080021A617868B6
:102A7C0000F06FFABB6803F04003002B0CD0FB682E
:102A8C0003F04003002B07D07B681B686FF04002FB
:102A9C001A61786800F0F8F8BB6803F02003002B8B
:102AAC000CD0FB6803F02003002B07D07B681B685D
:102ABC006FF020021A61786800F042FA00BF1037FC
:102ACC00BD4680BD80B584B000AF7860396000230E
:102ADC00FB737B6893F83C30012B01D10223B4E0EB
:102AEC007B68012283F83C207B68022283F83D201E
:102AFC007B681B689B68BB60BB6823F07703BB607B
:102B0C00BB6823F47F43BB607B681B68BA689A6020
:102B1C003B681B68B3F5005F3ED0B3F5005F00F275
:102B2C008780B3F5805F00F08680B3F5805F7FD837
:102B3C00702B1AD0702B7BD8602B50D0602B77D891
:102B4C00502B3CD0502B73D8402B58D0402B6FD8E7
:102B5C00302B64D0302B6BD8202B60D0202B67D837
:102B6C00002B5CD0102B5AD062E07B6818683B6855
:102B7C0099683B685A683B68DB6800F06AF97B68C7
:102B8C001B689B68BB60BB6843F07703BB607B68CA
:102B9C001B68BA689A604FE07B6818683B68996854
:102BAC003B685A683B68DB6800F053F97B681B682C
:102BBC009A687B681B6842F480429A603CE07B68B0
:102BCC0018683B6859683B68DB681A4600F0CAF81D
:102BDC007B681B685021184600F021F92CE07B68BB
:102BEC0018683B6859683B68DB681A4600F0E8F8DF
:102BFC007B681B686021184600F011F91CE07B68AB
:102C0C0018683B6859683B68DB681A4600F0AAF8FC
:102C1C007B681B684021184600F001F90CE07B68CA
:102C2C001A683B681B681946104600F0F8F803E078
:102C3C000123FB7300E000BF7B68012283F83D2079
:102C4C007B68002283F83C20FB7B18461037BD467E
:102C5C0080BD80B483B000AF786000BF0C37BD4638
:102C6C0080BC704780B483B000AF786000BF0C3775
:102C7C00BD4680BC704780B483B000AF786000BFA5
:102C8C000C37BD4680BC704780B483B000AF786011
:102C9C0000BF0C37BD4680BC7047000080B485B0C7
:102CAC0000AF786039607B681B68FB607B682B4ADF
:102CBC00934207D07B68B3F1804F03D07B68284ADE
:102CCC00934208D1FB6823F07003FB603B685B68A0
:102CDC00FA681343FB607B68204A934207D07B68F9
:102CEC00B3F1804F03D07B681D4A934208D1FB6837
:102CFC0023F44073FB603B68DB68FA681343FB60AA
:102D0C00FB6823F080023B685B691343FB607B68C4
:102D1C00FA681A603B689A687B68DA623B681A68E2
:102D2C007B689A627B680D4A934203D13B681A69AF
:102D3C007B681A637B6801225A617B681B6903F00C
:102D4C000103002B05D07B681B6923F001027B6813
:102D5C001A6100BF1437BD4680BC7047002C01407F
:102D6C000004004080B487B000AFF860B9607A60AE
:102D7C00FB681B6A7B61FB681B6A23F00102FB6822
:102D8C001A62FB689B693B613B6923F0F0033B6172
:102D9C007B681B013A6913433B617B6923F00A038F
:102DAC007B617A69BB6813437B61FB683A699A6102
:102DBC00FB687A691A6200BF1C37BD4680BC70473D
:102DCC0080B487B000AFF860B9607A60FB681B6AAA
:102DDC007B61FB681B6A23F01002FB681A62FB68BC
:102DEC009B693B613B6923F470433B617B681B032C
:102DFC003A6913433B617B6923F0A0037B61BB6899
:102E0C001B017A6913437B61FB683A699A61FB6821
:102E1C007A691A6200BF1C37BD4680BC704780B40B
:102E2C0085B000AF786039607B689B68FB60FB689D
:102E3C0023F07003FB603A68FB68134343F007030D
:102E4C00FB607B68FA689A6000BF1437BD4680BC93
:102E5C00704780B487B000AFF860B9607A603B60AF
:102E6C00FB689B687B617B6923F47F437B613B68D8
:102E7C001A027B681A43BB6813437A6913437B615C
:102E8C00FB687A699A6000BF1C37BD4680BC7047EE
:102E9C0080B485B000AF786039607B6893F83C30C3
:102EAC00012B01D1022341E07B68012283F83C20F5
:102EBC007B68022283F83D207B681B685B68FB60A3
:102ECC007B681B689B68BB60FB6823F07003FB602E
:102EDC003B681B68FA681343FB607B681B68FA68E5
:102EEC005A607B681B68144A934209D07B681B6844
:102EFC00B3F1804F04D07B681B68104A93420CD10D
:102F0C00BB6823F08003BB603B685B68BA68134303
:102F1C00BB607B681B68BA689A607B68012283F887
:102F2C003D207B68002283F83C2000231846143790
:102F3C00BD4680BC704700BF002C0140000400401F
:102F4C0080B483B000AF786000BF0C37BD4680BC46
:102F5C00704780B483B000AF786000BF0C37BD46BB
:102F6C0080BC704770B500260C4D0D4C641BA41032
:102F7C00A64209D100F022F800260A4D0A4C641B27
:102F8C00A410A64205D170BD55F8043B98470136F4
:102F9C00EEE755F8043B98470136F2E70C30000891
:102FAC000C3000080C3000081030000803460244B6
:102FBC00934200D1704703F8011BF9E7F8B500BF45
:102FCC00F8BC08BC9E467047F8B500BFF8BC08BCFE
:042FDC009E46704756
:102FE00000080010002000000000000000000000A9
:102FF000010203040607080902030405060708097D
:0C3000000A0B0C0D0E0F10100102000056
:04300C003101000886
:043010000D010008A6
:10301400030102030A000000050000000200000092
:103024000300000000127A001000000001000000FC
:040000050800198155
:00000001FF
